{
	"contracts/Token.sol": {
		"Token": {
			"abi": [
				{
					"inputs": [],
					"stateMutability": "nonpayable",
					"type": "constructor"
				},
				{
					"anonymous": false,
					"inputs": [
						{
							"indexed": true,
							"internalType": "address",
							"name": "owner",
							"type": "address"
						},
						{
							"indexed": true,
							"internalType": "address",
							"name": "spender",
							"type": "address"
						},
						{
							"indexed": false,
							"internalType": "uint256",
							"name": "value",
							"type": "uint256"
						}
					],
					"name": "Approval",
					"type": "event"
				},
				{
					"anonymous": false,
					"inputs": [
						{
							"indexed": true,
							"internalType": "address",
							"name": "from",
							"type": "address"
						},
						{
							"indexed": true,
							"internalType": "address",
							"name": "to",
							"type": "address"
						},
						{
							"indexed": false,
							"internalType": "uint256",
							"name": "value",
							"type": "uint256"
						}
					],
					"name": "Transfer",
					"type": "event"
				},
				{
					"inputs": [
						{
							"internalType": "address",
							"name": "",
							"type": "address"
						},
						{
							"internalType": "address",
							"name": "",
							"type": "address"
						}
					],
					"name": "allowance",
					"outputs": [
						{
							"internalType": "uint256",
							"name": "",
							"type": "uint256"
						}
					],
					"stateMutability": "view",
					"type": "function"
				},
				{
					"inputs": [
						{
							"internalType": "address",
							"name": "spender",
							"type": "address"
						},
						{
							"internalType": "uint256",
							"name": "value",
							"type": "uint256"
						}
					],
					"name": "approve",
					"outputs": [
						{
							"internalType": "bool",
							"name": "",
							"type": "bool"
						}
					],
					"stateMutability": "nonpayable",
					"type": "function"
				},
				{
					"inputs": [
						{
							"internalType": "address",
							"name": "owner",
							"type": "address"
						}
					],
					"name": "balanceOf",
					"outputs": [
						{
							"internalType": "uint256",
							"name": "",
							"type": "uint256"
						}
					],
					"stateMutability": "view",
					"type": "function"
				},
				{
					"inputs": [
						{
							"internalType": "address",
							"name": "",
							"type": "address"
						}
					],
					"name": "balances",
					"outputs": [
						{
							"internalType": "uint256",
							"name": "",
							"type": "uint256"
						}
					],
					"stateMutability": "view",
					"type": "function"
				},
				{
					"inputs": [],
					"name": "decimals",
					"outputs": [
						{
							"internalType": "uint256",
							"name": "",
							"type": "uint256"
						}
					],
					"stateMutability": "view",
					"type": "function"
				},
				{
					"inputs": [],
					"name": "symbol",
					"outputs": [
						{
							"internalType": "string",
							"name": "",
							"type": "string"
						}
					],
					"stateMutability": "view",
					"type": "function"
				},
				{
					"inputs": [],
					"name": "token_name",
					"outputs": [
						{
							"internalType": "string",
							"name": "",
							"type": "string"
						}
					],
					"stateMutability": "view",
					"type": "function"
				},
				{
					"inputs": [],
					"name": "total_supply",
					"outputs": [
						{
							"internalType": "uint256",
							"name": "",
							"type": "uint256"
						}
					],
					"stateMutability": "view",
					"type": "function"
				},
				{
					"inputs": [
						{
							"internalType": "address",
							"name": "to",
							"type": "address"
						},
						{
							"internalType": "uint256",
							"name": "value",
							"type": "uint256"
						}
					],
					"name": "transfer",
					"outputs": [
						{
							"internalType": "bool",
							"name": "",
							"type": "bool"
						}
					],
					"stateMutability": "nonpayable",
					"type": "function"
				},
				{
					"inputs": [
						{
							"internalType": "address",
							"name": "from",
							"type": "address"
						},
						{
							"internalType": "address",
							"name": "to",
							"type": "address"
						},
						{
							"internalType": "uint256",
							"name": "value",
							"type": "uint256"
						}
					],
					"name": "transferFrom",
					"outputs": [
						{
							"internalType": "bool",
							"name": "",
							"type": "bool"
						}
					],
					"stateMutability": "nonpayable",
					"type": "function"
				}
			],
			"devdoc": {
				"kind": "dev",
				"methods": {},
				"version": 1
			},
			"evm": {
				"assembly": "    /* \"contracts/Token.sol\":115:2341  contract Token {... */\n  mstore(0x40, 0x80)\n    /* \"contracts/Token.sol\":163:167  1500 */\n  0x05dc\n    /* \"contracts/Token.sol\":136:167  uint public total_supply = 1500 */\n  0x00\n  sstore\n    /* \"contracts/Token.sol\":173:216  string public token_name = \"Tutorial Token\" */\n  mload(0x40)\n  dup1\n  0x40\n  add\n  0x40\n  mstore\n  dup1\n  0x0e\n  dup2\n  mstore\n  0x20\n  add\n  0x5475746f7269616c20546f6b656e000000000000000000000000000000000000\n  dup2\n  mstore\n  pop\n  0x01\n  swap1\n  dup1\n  mload\n  swap1\n  0x20\n  add\n  swap1\n  tag_1\n  swap3\n  swap2\n  swap1\n  tag_2\n  jump\t// in\ntag_1:\n  pop\n    /* \"contracts/Token.sol\":256:284  string public symbol = \"TTK\" */\n  mload(0x40)\n  dup1\n  0x40\n  add\n  0x40\n  mstore\n  dup1\n  0x03\n  dup2\n  mstore\n  0x20\n  add\n  0x54544b0000000000000000000000000000000000000000000000000000000000\n  dup2\n  mstore\n  pop\n  0x02\n  swap1\n  dup1\n  mload\n  swap1\n  0x20\n  add\n  swap1\n  tag_3\n  swap3\n  swap2\n  swap1\n  tag_2\n  jump\t// in\ntag_3:\n  pop\n    /* \"contracts/Token.sol\":313:315  18 */\n  0x12\n    /* \"contracts/Token.sol\":290:315  uint public decimals = 18 */\n  0x03\n  sstore\n    /* \"contracts/Token.sol\":795:938  constructor(){ ... */\n  callvalue\n  dup1\n  iszero\n  tag_4\n  jumpi\n  0x00\n  dup1\n  revert\ntag_4:\n  pop\n    /* \"contracts/Token.sol\":919:931  total_supply */\n  sload(0x00)\n    /* \"contracts/Token.sol\":896:904  balances */\n  0x04\n    /* \"contracts/Token.sol\":896:916  balances[msg.sender] */\n  0x00\n    /* \"contracts/Token.sol\":905:915  msg.sender */\n  caller\n    /* \"contracts/Token.sol\":896:916  balances[msg.sender] */\n  0xffffffffffffffffffffffffffffffffffffffff\n  and\n  0xffffffffffffffffffffffffffffffffffffffff\n  and\n  dup2\n  mstore\n  0x20\n  add\n  swap1\n  dup2\n  mstore\n  0x20\n  add\n  0x00\n  keccak256\n    /* \"contracts/Token.sol\":896:931  balances[msg.sender] = total_supply */\n  dup2\n  swap1\n  sstore\n  pop\n    /* \"contracts/Token.sol\":115:2341  contract Token {... */\n  jump(tag_7)\ntag_2:\n  dup3\n  dup1\n  sload\n  tag_8\n  swap1\n  tag_9\n  jump\t// in\ntag_8:\n  swap1\n  0x00\n  mstore\n  keccak256(0x00, 0x20)\n  swap1\n  0x1f\n  add\n  0x20\n  swap1\n  div\n  dup2\n  add\n  swap3\n  dup3\n  tag_11\n  jumpi\n  0x00\n  dup6\n  sstore\n  jump(tag_10)\ntag_11:\n  dup3\n  0x1f\n  lt\n  tag_12\n  jumpi\n  dup1\n  mload\n  not(0xff)\n  and\n  dup4\n  dup1\n  add\n  or\n  dup6\n  sstore\n  jump(tag_10)\ntag_12:\n  dup3\n  dup1\n  add\n  0x01\n  add\n  dup6\n  sstore\n  dup3\n  iszero\n  tag_10\n  jumpi\n  swap2\n  dup3\n  add\ntag_13:\n  dup3\n  dup2\n  gt\n  iszero\n  tag_14\n  jumpi\n  dup3\n  mload\n  dup3\n  sstore\n  swap2\n  0x20\n  add\n  swap2\n  swap1\n  0x01\n  add\n  swap1\n  jump(tag_13)\ntag_14:\ntag_10:\n  pop\n  swap1\n  pop\n  tag_15\n  swap2\n  swap1\n  tag_16\n  jump\t// in\ntag_15:\n  pop\n  swap1\n  jump\t// out\ntag_16:\ntag_17:\n  dup1\n  dup3\n  gt\n  iszero\n  tag_18\n  jumpi\n  0x00\n  dup2\n  0x00\n  swap1\n  sstore\n  pop\n  0x01\n  add\n  jump(tag_17)\ntag_18:\n  pop\n  swap1\n  jump\t// out\n    /* \"#utility.yul\":7:327   */\ntag_9:\n    /* \"#utility.yul\":51:57   */\n  0x00\n    /* \"#utility.yul\":88:89   */\n  0x02\n    /* \"#utility.yul\":82:86   */\n  dup3\n    /* \"#utility.yul\":78:90   */\n  div\n    /* \"#utility.yul\":68:90   */\n  swap1\n  pop\n    /* \"#utility.yul\":135:136   */\n  0x01\n    /* \"#utility.yul\":129:133   */\n  dup3\n    /* \"#utility.yul\":125:137   */\n  and\n    /* \"#utility.yul\":156:174   */\n  dup1\n    /* \"#utility.yul\":146:227   */\n  tag_21\n  jumpi\n    /* \"#utility.yul\":212:216   */\n  0x7f\n    /* \"#utility.yul\":204:210   */\n  dup3\n    /* \"#utility.yul\":200:217   */\n  and\n    /* \"#utility.yul\":190:217   */\n  swap2\n  pop\n    /* \"#utility.yul\":146:227   */\ntag_21:\n    /* \"#utility.yul\":274:276   */\n  0x20\n    /* \"#utility.yul\":266:272   */\n  dup3\n    /* \"#utility.yul\":263:277   */\n  lt\n    /* \"#utility.yul\":243:261   */\n  dup2\n    /* \"#utility.yul\":240:278   */\n  eq\n    /* \"#utility.yul\":237:321   */\n  iszero\n  tag_22\n  jumpi\n    /* \"#utility.yul\":293:311   */\n  tag_23\n  tag_24\n  jump\t// in\ntag_23:\n    /* \"#utility.yul\":237:321   */\ntag_22:\n    /* \"#utility.yul\":58:327   */\n  pop\n    /* \"#utility.yul\":7:327   */\n  swap2\n  swap1\n  pop\n  jump\t// out\n    /* \"#utility.yul\":333:513   */\ntag_24:\n    /* \"#utility.yul\":381:458   */\n  0x4e487b7100000000000000000000000000000000000000000000000000000000\n    /* \"#utility.yul\":378:379   */\n  0x00\n    /* \"#utility.yul\":371:459   */\n  mstore\n    /* \"#utility.yul\":478:482   */\n  0x22\n    /* \"#utility.yul\":475:476   */\n  0x04\n    /* \"#utility.yul\":468:483   */\n  mstore\n    /* \"#utility.yul\":502:506   */\n  0x24\n    /* \"#utility.yul\":499:500   */\n  0x00\n    /* \"#utility.yul\":492:507   */\n  revert\n    /* \"contracts/Token.sol\":115:2341  contract Token {... */\ntag_7:\n  dataSize(sub_0)\n  dup1\n  dataOffset(sub_0)\n  0x00\n  codecopy\n  0x00\n  return\nstop\n\nsub_0: assembly {\n        /* \"contracts/Token.sol\":115:2341  contract Token {... */\n      mstore(0x40, 0x80)\n      callvalue\n      dup1\n      iszero\n      tag_1\n      jumpi\n      0x00\n      dup1\n      revert\n    tag_1:\n      pop\n      jumpi(tag_2, lt(calldatasize, 0x04))\n      shr(0xe0, calldataload(0x00))\n      dup1\n      0x70a08231\n      gt\n      tag_13\n      jumpi\n      dup1\n      0x70a08231\n      eq\n      tag_8\n      jumpi\n      dup1\n      0x947a3168\n      eq\n      tag_9\n      jumpi\n      dup1\n      0x95d89b41\n      eq\n      tag_10\n      jumpi\n      dup1\n      0xa9059cbb\n      eq\n      tag_11\n      jumpi\n      dup1\n      0xdd62ed3e\n      eq\n      tag_12\n      jumpi\n      jump(tag_2)\n    tag_13:\n      dup1\n      0x095ea7b3\n      eq\n      tag_3\n      jumpi\n      dup1\n      0x23b872dd\n      eq\n      tag_4\n      jumpi\n      dup1\n      0x27e235e3\n      eq\n      tag_5\n      jumpi\n      dup1\n      0x313ce567\n      eq\n      tag_6\n      jumpi\n      dup1\n      0x3940e9ee\n      eq\n      tag_7\n      jumpi\n    tag_2:\n      0x00\n      dup1\n      revert\n        /* \"contracts/Token.sol\":1521:1812  function approve(address spender, uint value) public returns(bool){... */\n    tag_3:\n      tag_14\n      0x04\n      dup1\n      calldatasize\n      sub\n      dup2\n      add\n      swap1\n      tag_15\n      swap2\n      swap1\n      tag_16\n      jump\t// in\n    tag_15:\n      tag_17\n      jump\t// in\n    tag_14:\n      mload(0x40)\n      tag_18\n      swap2\n      swap1\n      tag_19\n      jump\t// in\n    tag_18:\n      mload(0x40)\n      dup1\n      swap2\n      sub\n      swap1\n      return\n        /* \"contracts/Token.sol\":1819:2338  function transferFrom(address from, address to, uint value) public returns(bool){... */\n    tag_4:\n      tag_20\n      0x04\n      dup1\n      calldatasize\n      sub\n      dup2\n      add\n      swap1\n      tag_21\n      swap2\n      swap1\n      tag_22\n      jump\t// in\n    tag_21:\n      tag_23\n      jump\t// in\n    tag_20:\n      mload(0x40)\n      tag_24\n      swap2\n      swap1\n      tag_19\n      jump\t// in\n    tag_24:\n      mload(0x40)\n      dup1\n      swap2\n      sub\n      swap1\n      return\n        /* \"contracts/Token.sol\":381:421  mapping(address => uint) public balances */\n    tag_5:\n      tag_25\n      0x04\n      dup1\n      calldatasize\n      sub\n      dup2\n      add\n      swap1\n      tag_26\n      swap2\n      swap1\n      tag_27\n      jump\t// in\n    tag_26:\n      tag_28\n      jump\t// in\n    tag_25:\n      mload(0x40)\n      tag_29\n      swap2\n      swap1\n      tag_30\n      jump\t// in\n    tag_29:\n      mload(0x40)\n      dup1\n      swap2\n      sub\n      swap1\n      return\n        /* \"contracts/Token.sol\":290:315  uint public decimals = 18 */\n    tag_6:\n      tag_31\n      tag_32\n      jump\t// in\n    tag_31:\n      mload(0x40)\n      tag_33\n      swap2\n      swap1\n      tag_30\n      jump\t// in\n    tag_33:\n      mload(0x40)\n      dup1\n      swap2\n      sub\n      swap1\n      return\n        /* \"contracts/Token.sol\":136:167  uint public total_supply = 1500 */\n    tag_7:\n      tag_34\n      tag_35\n      jump\t// in\n    tag_34:\n      mload(0x40)\n      tag_36\n      swap2\n      swap1\n      tag_30\n      jump\t// in\n    tag_36:\n      mload(0x40)\n      dup1\n      swap2\n      sub\n      swap1\n      return\n        /* \"contracts/Token.sol\":944:1091  function balanceOf(address owner) public view returns(uint) {... */\n    tag_8:\n      tag_37\n      0x04\n      dup1\n      calldatasize\n      sub\n      dup2\n      add\n      swap1\n      tag_38\n      swap2\n      swap1\n      tag_27\n      jump\t// in\n    tag_38:\n      tag_39\n      jump\t// in\n    tag_37:\n      mload(0x40)\n      tag_40\n      swap2\n      swap1\n      tag_30\n      jump\t// in\n    tag_40:\n      mload(0x40)\n      dup1\n      swap2\n      sub\n      swap1\n      return\n        /* \"contracts/Token.sol\":173:216  string public token_name = \"Tutorial Token\" */\n    tag_9:\n      tag_41\n      tag_42\n      jump\t// in\n    tag_41:\n      mload(0x40)\n      tag_43\n      swap2\n      swap1\n      tag_44\n      jump\t// in\n    tag_43:\n      mload(0x40)\n      dup1\n      swap2\n      sub\n      swap1\n      return\n        /* \"contracts/Token.sol\":256:284  string public symbol = \"TTK\" */\n    tag_10:\n      tag_45\n      tag_46\n      jump\t// in\n    tag_45:\n      mload(0x40)\n      tag_47\n      swap2\n      swap1\n      tag_44\n      jump\t// in\n    tag_47:\n      mload(0x40)\n      dup1\n      swap2\n      sub\n      swap1\n      return\n        /* \"contracts/Token.sol\":1097:1478  function transfer(address to, uint value) public returns(bool){... */\n    tag_11:\n      tag_48\n      0x04\n      dup1\n      calldatasize\n      sub\n      dup2\n      add\n      swap1\n      tag_49\n      swap2\n      swap1\n      tag_16\n      jump\t// in\n    tag_49:\n      tag_50\n      jump\t// in\n    tag_48:\n      mload(0x40)\n      tag_51\n      swap2\n      swap1\n      tag_19\n      jump\t// in\n    tag_51:\n      mload(0x40)\n      dup1\n      swap2\n      sub\n      swap1\n      return\n        /* \"contracts/Token.sol\":457:518  mapping(address => mapping(address => uint)) public allowance */\n    tag_12:\n      tag_52\n      0x04\n      dup1\n      calldatasize\n      sub\n      dup2\n      add\n      swap1\n      tag_53\n      swap2\n      swap1\n      tag_54\n      jump\t// in\n    tag_53:\n      tag_55\n      jump\t// in\n    tag_52:\n      mload(0x40)\n      tag_56\n      swap2\n      swap1\n      tag_30\n      jump\t// in\n    tag_56:\n      mload(0x40)\n      dup1\n      swap2\n      sub\n      swap1\n      return\n        /* \"contracts/Token.sol\":1521:1812  function approve(address spender, uint value) public returns(bool){... */\n    tag_17:\n        /* \"contracts/Token.sol\":1582:1586  bool */\n      0x00\n        /* \"contracts/Token.sol\":1630:1635  value */\n      dup2\n        /* \"contracts/Token.sol\":1597:1606  allowance */\n      0x05\n        /* \"contracts/Token.sol\":1597:1618  allowance[msg.sender] */\n      0x00\n        /* \"contracts/Token.sol\":1607:1617  msg.sender */\n      caller\n        /* \"contracts/Token.sol\":1597:1618  allowance[msg.sender] */\n      0xffffffffffffffffffffffffffffffffffffffff\n      and\n      0xffffffffffffffffffffffffffffffffffffffff\n      and\n      dup2\n      mstore\n      0x20\n      add\n      swap1\n      dup2\n      mstore\n      0x20\n      add\n      0x00\n      keccak256\n        /* \"contracts/Token.sol\":1597:1627  allowance[msg.sender][spender] */\n      0x00\n        /* \"contracts/Token.sol\":1619:1626  spender */\n      dup6\n        /* \"contracts/Token.sol\":1597:1627  allowance[msg.sender][spender] */\n      0xffffffffffffffffffffffffffffffffffffffff\n      and\n      0xffffffffffffffffffffffffffffffffffffffff\n      and\n      dup2\n      mstore\n      0x20\n      add\n      swap1\n      dup2\n      mstore\n      0x20\n      add\n      0x00\n      keccak256\n        /* \"contracts/Token.sol\":1597:1635  allowance[msg.sender][spender] = value */\n      dup2\n      swap1\n      sstore\n      pop\n        /* \"contracts/Token.sol\":1728:1735  spender */\n      dup3\n        /* \"contracts/Token.sol\":1707:1743  Approval(msg.sender, spender, value) */\n      0xffffffffffffffffffffffffffffffffffffffff\n      and\n        /* \"contracts/Token.sol\":1716:1726  msg.sender */\n      caller\n        /* \"contracts/Token.sol\":1707:1743  Approval(msg.sender, spender, value) */\n      0xffffffffffffffffffffffffffffffffffffffff\n      and\n      0x8c5be1e5ebec7d5bd14f71427d1e84f3dd0314c0f7b2291e5b200ac8c7c3b925\n        /* \"contracts/Token.sol\":1737:1742  value */\n      dup5\n        /* \"contracts/Token.sol\":1707:1743  Approval(msg.sender, spender, value) */\n      mload(0x40)\n      tag_58\n      swap2\n      swap1\n      tag_30\n      jump\t// in\n    tag_58:\n      mload(0x40)\n      dup1\n      swap2\n      sub\n      swap1\n      log3\n        /* \"contracts/Token.sol\":1801:1805  true */\n      0x01\n        /* \"contracts/Token.sol\":1794:1805  return true */\n      swap1\n      pop\n        /* \"contracts/Token.sol\":1521:1812  function approve(address spender, uint value) public returns(bool){... */\n      swap3\n      swap2\n      pop\n      pop\n      jump\t// out\n        /* \"contracts/Token.sol\":1819:2338  function transferFrom(address from, address to, uint value) public returns(bool){... */\n    tag_23:\n        /* \"contracts/Token.sol\":1894:1898  bool */\n      0x00\n        /* \"contracts/Token.sol\":2005:2010  value */\n      dup2\n        /* \"contracts/Token.sol\":1975:1984  allowance */\n      0x05\n        /* \"contracts/Token.sol\":1975:1990  allowance[from] */\n      0x00\n        /* \"contracts/Token.sol\":1985:1989  from */\n      dup7\n        /* \"contracts/Token.sol\":1975:1990  allowance[from] */\n      0xffffffffffffffffffffffffffffffffffffffff\n      and\n      0xffffffffffffffffffffffffffffffffffffffff\n      and\n      dup2\n      mstore\n      0x20\n      add\n      swap1\n      dup2\n      mstore\n      0x20\n      add\n      0x00\n      keccak256\n        /* \"contracts/Token.sol\":1975:2002  allowance[from][msg.sender] */\n      0x00\n        /* \"contracts/Token.sol\":1991:2001  msg.sender */\n      caller\n        /* \"contracts/Token.sol\":1975:2002  allowance[from][msg.sender] */\n      0xffffffffffffffffffffffffffffffffffffffff\n      and\n      0xffffffffffffffffffffffffffffffffffffffff\n      and\n      dup2\n      mstore\n      0x20\n      add\n      swap1\n      dup2\n      mstore\n      0x20\n      add\n      0x00\n      keccak256\n      sload\n        /* \"contracts/Token.sol\":1975:2010  allowance[from][msg.sender] >=value */\n      lt\n      iszero\n        /* \"contracts/Token.sol\":1967:2032  require(allowance[from][msg.sender] >=value, \"allowance too low\") */\n      tag_60\n      jumpi\n      mload(0x40)\n      0x08c379a000000000000000000000000000000000000000000000000000000000\n      dup2\n      mstore\n      0x04\n      add\n      tag_61\n      swap1\n      tag_62\n      jump\t// in\n    tag_61:\n      mload(0x40)\n      dup1\n      swap2\n      sub\n      swap1\n      revert\n    tag_60:\n        /* \"contracts/Token.sol\":2096:2101  value */\n      dup2\n        /* \"contracts/Token.sol\":2077:2092  balanceOf(from) */\n      tag_63\n        /* \"contracts/Token.sol\":2087:2091  from */\n      dup6\n        /* \"contracts/Token.sol\":2077:2086  balanceOf */\n      tag_39\n        /* \"contracts/Token.sol\":2077:2092  balanceOf(from) */\n      jump\t// in\n    tag_63:\n        /* \"contracts/Token.sol\":2077:2101  balanceOf(from) >= value */\n      lt\n      iszero\n        /* \"contracts/Token.sol\":2069:2124  require(balanceOf(from) >= value, \"balance is too low\") */\n      tag_64\n      jumpi\n      mload(0x40)\n      0x08c379a000000000000000000000000000000000000000000000000000000000\n      dup2\n      mstore\n      0x04\n      add\n      tag_65\n      swap1\n      tag_66\n      jump\t// in\n    tag_65:\n      mload(0x40)\n      dup1\n      swap2\n      sub\n      swap1\n      revert\n    tag_64:\n        /* \"contracts/Token.sol\":2210:2215  value */\n      dup2\n        /* \"contracts/Token.sol\":2194:2202  balances */\n      0x04\n        /* \"contracts/Token.sol\":2194:2206  balances[to] */\n      0x00\n        /* \"contracts/Token.sol\":2203:2205  to */\n      dup6\n        /* \"contracts/Token.sol\":2194:2206  balances[to] */\n      0xffffffffffffffffffffffffffffffffffffffff\n      and\n      0xffffffffffffffffffffffffffffffffffffffff\n      and\n      dup2\n      mstore\n      0x20\n      add\n      swap1\n      dup2\n      mstore\n      0x20\n      add\n      0x00\n      keccak256\n      0x00\n        /* \"contracts/Token.sol\":2194:2215  balances[to] += value */\n      dup3\n      dup3\n      sload\n      tag_67\n      swap2\n      swap1\n      tag_68\n      jump\t// in\n    tag_67:\n      swap3\n      pop\n      pop\n      dup2\n      swap1\n      sstore\n      pop\n        /* \"contracts/Token.sol\":2243:2248  value */\n      dup2\n        /* \"contracts/Token.sol\":2225:2233  balances */\n      0x04\n        /* \"contracts/Token.sol\":2225:2239  balances[from] */\n      0x00\n        /* \"contracts/Token.sol\":2234:2238  from */\n      dup7\n        /* \"contracts/Token.sol\":2225:2239  balances[from] */\n      0xffffffffffffffffffffffffffffffffffffffff\n      and\n      0xffffffffffffffffffffffffffffffffffffffff\n      and\n      dup2\n      mstore\n      0x20\n      add\n      swap1\n      dup2\n      mstore\n      0x20\n      add\n      0x00\n      keccak256\n      0x00\n        /* \"contracts/Token.sol\":2225:2248  balances[from] -= value */\n      dup3\n      dup3\n      sload\n      tag_69\n      swap2\n      swap1\n      tag_70\n      jump\t// in\n    tag_69:\n      swap3\n      pop\n      pop\n      dup2\n      swap1\n      sstore\n      pop\n        /* \"contracts/Token.sol\":2300:2302  to */\n      dup3\n        /* \"contracts/Token.sol\":2285:2310  Transfer(from, to, value) */\n      0xffffffffffffffffffffffffffffffffffffffff\n      and\n        /* \"contracts/Token.sol\":2294:2298  from */\n      dup5\n        /* \"contracts/Token.sol\":2285:2310  Transfer(from, to, value) */\n      0xffffffffffffffffffffffffffffffffffffffff\n      and\n      0xddf252ad1be2c89b69c2b068fc378daa952ba7f163c4a11628f55a4df523b3ef\n        /* \"contracts/Token.sol\":2304:2309  value */\n      dup5\n        /* \"contracts/Token.sol\":2285:2310  Transfer(from, to, value) */\n      mload(0x40)\n      tag_71\n      swap2\n      swap1\n      tag_30\n      jump\t// in\n    tag_71:\n      mload(0x40)\n      dup1\n      swap2\n      sub\n      swap1\n      log3\n        /* \"contracts/Token.sol\":2327:2331  true */\n      0x01\n        /* \"contracts/Token.sol\":2320:2331  return true */\n      swap1\n      pop\n        /* \"contracts/Token.sol\":1819:2338  function transferFrom(address from, address to, uint value) public returns(bool){... */\n      swap4\n      swap3\n      pop\n      pop\n      pop\n      jump\t// out\n        /* \"contracts/Token.sol\":381:421  mapping(address => uint) public balances */\n    tag_28:\n      mstore(0x20, 0x04)\n      dup1\n      0x00\n      mstore\n      keccak256(0x00, 0x40)\n      0x00\n      swap2\n      pop\n      swap1\n      pop\n      sload\n      dup2\n      jump\t// out\n        /* \"contracts/Token.sol\":290:315  uint public decimals = 18 */\n    tag_32:\n      sload(0x03)\n      dup2\n      jump\t// out\n        /* \"contracts/Token.sol\":136:167  uint public total_supply = 1500 */\n    tag_35:\n      sload(0x00)\n      dup2\n      jump\t// out\n        /* \"contracts/Token.sol\":944:1091  function balanceOf(address owner) public view returns(uint) {... */\n    tag_39:\n        /* \"contracts/Token.sol\":998:1002  uint */\n      0x00\n        /* \"contracts/Token.sol\":1068:1076  balances */\n      0x04\n        /* \"contracts/Token.sol\":1068:1083  balances[owner] */\n      0x00\n        /* \"contracts/Token.sol\":1077:1082  owner */\n      dup4\n        /* \"contracts/Token.sol\":1068:1083  balances[owner] */\n      0xffffffffffffffffffffffffffffffffffffffff\n      and\n      0xffffffffffffffffffffffffffffffffffffffff\n      and\n      dup2\n      mstore\n      0x20\n      add\n      swap1\n      dup2\n      mstore\n      0x20\n      add\n      0x00\n      keccak256\n      sload\n        /* \"contracts/Token.sol\":1061:1083  return balances[owner] */\n      swap1\n      pop\n        /* \"contracts/Token.sol\":944:1091  function balanceOf(address owner) public view returns(uint) {... */\n      swap2\n      swap1\n      pop\n      jump\t// out\n        /* \"contracts/Token.sol\":173:216  string public token_name = \"Tutorial Token\" */\n    tag_42:\n      0x01\n      dup1\n      sload\n      tag_73\n      swap1\n      tag_74\n      jump\t// in\n    tag_73:\n      dup1\n      0x1f\n      add\n      0x20\n      dup1\n      swap2\n      div\n      mul\n      0x20\n      add\n      mload(0x40)\n      swap1\n      dup2\n      add\n      0x40\n      mstore\n      dup1\n      swap3\n      swap2\n      swap1\n      dup2\n      dup2\n      mstore\n      0x20\n      add\n      dup3\n      dup1\n      sload\n      tag_75\n      swap1\n      tag_74\n      jump\t// in\n    tag_75:\n      dup1\n      iszero\n      tag_76\n      jumpi\n      dup1\n      0x1f\n      lt\n      tag_77\n      jumpi\n      0x0100\n      dup1\n      dup4\n      sload\n      div\n      mul\n      dup4\n      mstore\n      swap2\n      0x20\n      add\n      swap2\n      jump(tag_76)\n    tag_77:\n      dup3\n      add\n      swap2\n      swap1\n      0x00\n      mstore\n      keccak256(0x00, 0x20)\n      swap1\n    tag_78:\n      dup2\n      sload\n      dup2\n      mstore\n      swap1\n      0x01\n      add\n      swap1\n      0x20\n      add\n      dup1\n      dup4\n      gt\n      tag_78\n      jumpi\n      dup3\n      swap1\n      sub\n      0x1f\n      and\n      dup3\n      add\n      swap2\n    tag_76:\n      pop\n      pop\n      pop\n      pop\n      pop\n      dup2\n      jump\t// out\n        /* \"contracts/Token.sol\":256:284  string public symbol = \"TTK\" */\n    tag_46:\n      0x02\n      dup1\n      sload\n      tag_79\n      swap1\n      tag_74\n      jump\t// in\n    tag_79:\n      dup1\n      0x1f\n      add\n      0x20\n      dup1\n      swap2\n      div\n      mul\n      0x20\n      add\n      mload(0x40)\n      swap1\n      dup2\n      add\n      0x40\n      mstore\n      dup1\n      swap3\n      swap2\n      swap1\n      dup2\n      dup2\n      mstore\n      0x20\n      add\n      dup3\n      dup1\n      sload\n      tag_80\n      swap1\n      tag_74\n      jump\t// in\n    tag_80:\n      dup1\n      iszero\n      tag_81\n      jumpi\n      dup1\n      0x1f\n      lt\n      tag_82\n      jumpi\n      0x0100\n      dup1\n      dup4\n      sload\n      div\n      mul\n      dup4\n      mstore\n      swap2\n      0x20\n      add\n      swap2\n      jump(tag_81)\n    tag_82:\n      dup3\n      add\n      swap2\n      swap1\n      0x00\n      mstore\n      keccak256(0x00, 0x20)\n      swap1\n    tag_83:\n      dup2\n      sload\n      dup2\n      mstore\n      swap1\n      0x01\n      add\n      swap1\n      0x20\n      add\n      dup1\n      dup4\n      gt\n      tag_83\n      jumpi\n      dup3\n      swap1\n      sub\n      0x1f\n      and\n      dup3\n      add\n      swap2\n    tag_81:\n      pop\n      pop\n      pop\n      pop\n      pop\n      dup2\n      jump\t// out\n        /* \"contracts/Token.sol\":1097:1478  function transfer(address to, uint value) public returns(bool){... */\n    tag_50:\n        /* \"contracts/Token.sol\":1154:1158  bool */\n      0x00\n        /* \"contracts/Token.sol\":1237:1242  value */\n      dup2\n        /* \"contracts/Token.sol\":1213:1234  balanceOf(msg.sender) */\n      tag_85\n        /* \"contracts/Token.sol\":1223:1233  msg.sender */\n      caller\n        /* \"contracts/Token.sol\":1213:1222  balanceOf */\n      tag_39\n        /* \"contracts/Token.sol\":1213:1234  balanceOf(msg.sender) */\n      jump\t// in\n    tag_85:\n        /* \"contracts/Token.sol\":1213:1242  balanceOf(msg.sender)>= value */\n      lt\n      iszero\n        /* \"contracts/Token.sol\":1205:1265  require(balanceOf(msg.sender)>= value, 'balance not enough') */\n      tag_86\n      jumpi\n      mload(0x40)\n      0x08c379a000000000000000000000000000000000000000000000000000000000\n      dup2\n      mstore\n      0x04\n      add\n      tag_87\n      swap1\n      tag_88\n      jump\t// in\n    tag_87:\n      mload(0x40)\n      dup1\n      swap2\n      sub\n      swap1\n      revert\n    tag_86:\n        /* \"contracts/Token.sol\":1291:1296  value */\n      dup2\n        /* \"contracts/Token.sol\":1275:1283  balances */\n      0x04\n        /* \"contracts/Token.sol\":1275:1287  balances[to] */\n      0x00\n        /* \"contracts/Token.sol\":1284:1286  to */\n      dup6\n        /* \"contracts/Token.sol\":1275:1287  balances[to] */\n      0xffffffffffffffffffffffffffffffffffffffff\n      and\n      0xffffffffffffffffffffffffffffffffffffffff\n      and\n      dup2\n      mstore\n      0x20\n      add\n      swap1\n      dup2\n      mstore\n      0x20\n      add\n      0x00\n      keccak256\n      0x00\n        /* \"contracts/Token.sol\":1275:1296  balances[to] += value */\n      dup3\n      dup3\n      sload\n      tag_89\n      swap2\n      swap1\n      tag_68\n      jump\t// in\n    tag_89:\n      swap3\n      pop\n      pop\n      dup2\n      swap1\n      sstore\n      pop\n        /* \"contracts/Token.sol\":1330:1335  value */\n      dup2\n        /* \"contracts/Token.sol\":1306:1314  balances */\n      0x04\n        /* \"contracts/Token.sol\":1306:1326  balances[msg.sender] */\n      0x00\n        /* \"contracts/Token.sol\":1315:1325  msg.sender */\n      caller\n        /* \"contracts/Token.sol\":1306:1326  balances[msg.sender] */\n      0xffffffffffffffffffffffffffffffffffffffff\n      and\n      0xffffffffffffffffffffffffffffffffffffffff\n      and\n      dup2\n      mstore\n      0x20\n      add\n      swap1\n      dup2\n      mstore\n      0x20\n      add\n      0x00\n      keccak256\n      0x00\n        /* \"contracts/Token.sol\":1306:1335  balances[msg.sender] -= value */\n      dup3\n      dup3\n      sload\n      tag_90\n      swap2\n      swap1\n      tag_70\n      jump\t// in\n    tag_90:\n      swap3\n      pop\n      pop\n      dup2\n      swap1\n      sstore\n      pop\n        /* \"contracts/Token.sol\":1439:1441  to */\n      dup3\n        /* \"contracts/Token.sol\":1418:1450  Transfer(msg.sender, to , value) */\n      0xffffffffffffffffffffffffffffffffffffffff\n      and\n        /* \"contracts/Token.sol\":1427:1437  msg.sender */\n      caller\n        /* \"contracts/Token.sol\":1418:1450  Transfer(msg.sender, to , value) */\n      0xffffffffffffffffffffffffffffffffffffffff\n      and\n      0xddf252ad1be2c89b69c2b068fc378daa952ba7f163c4a11628f55a4df523b3ef\n        /* \"contracts/Token.sol\":1444:1449  value */\n      dup5\n        /* \"contracts/Token.sol\":1418:1450  Transfer(msg.sender, to , value) */\n      mload(0x40)\n      tag_91\n      swap2\n      swap1\n      tag_30\n      jump\t// in\n    tag_91:\n      mload(0x40)\n      dup1\n      swap2\n      sub\n      swap1\n      log3\n        /* \"contracts/Token.sol\":1467:1471  true */\n      0x01\n        /* \"contracts/Token.sol\":1460:1471  return true */\n      swap1\n      pop\n        /* \"contracts/Token.sol\":1097:1478  function transfer(address to, uint value) public returns(bool){... */\n      swap3\n      swap2\n      pop\n      pop\n      jump\t// out\n        /* \"contracts/Token.sol\":457:518  mapping(address => mapping(address => uint)) public allowance */\n    tag_55:\n      mstore(0x20, 0x05)\n      dup2\n      0x00\n      mstore\n      mstore(0x20, keccak256(0x00, 0x40))\n      dup1\n      0x00\n      mstore\n      keccak256(0x00, 0x40)\n      0x00\n      swap2\n      pop\n      swap2\n      pop\n      pop\n      sload\n      dup2\n      jump\t// out\n        /* \"#utility.yul\":7:146   */\n    tag_93:\n        /* \"#utility.yul\":53:58   */\n      0x00\n        /* \"#utility.yul\":91:97   */\n      dup2\n        /* \"#utility.yul\":78:98   */\n      calldataload\n        /* \"#utility.yul\":69:98   */\n      swap1\n      pop\n        /* \"#utility.yul\":107:140   */\n      tag_95\n        /* \"#utility.yul\":134:139   */\n      dup2\n        /* \"#utility.yul\":107:140   */\n      tag_96\n      jump\t// in\n    tag_95:\n        /* \"#utility.yul\":7:146   */\n      swap3\n      swap2\n      pop\n      pop\n      jump\t// out\n        /* \"#utility.yul\":152:291   */\n    tag_97:\n        /* \"#utility.yul\":198:203   */\n      0x00\n        /* \"#utility.yul\":236:242   */\n      dup2\n        /* \"#utility.yul\":223:243   */\n      calldataload\n        /* \"#utility.yul\":214:243   */\n      swap1\n      pop\n        /* \"#utility.yul\":252:285   */\n      tag_99\n        /* \"#utility.yul\":279:284   */\n      dup2\n        /* \"#utility.yul\":252:285   */\n      tag_100\n      jump\t// in\n    tag_99:\n        /* \"#utility.yul\":152:291   */\n      swap3\n      swap2\n      pop\n      pop\n      jump\t// out\n        /* \"#utility.yul\":297:626   */\n    tag_27:\n        /* \"#utility.yul\":356:362   */\n      0x00\n        /* \"#utility.yul\":405:407   */\n      0x20\n        /* \"#utility.yul\":393:402   */\n      dup3\n        /* \"#utility.yul\":384:391   */\n      dup5\n        /* \"#utility.yul\":380:403   */\n      sub\n        /* \"#utility.yul\":376:408   */\n      slt\n        /* \"#utility.yul\":373:492   */\n      iszero\n      tag_102\n      jumpi\n        /* \"#utility.yul\":411:490   */\n      tag_103\n      tag_104\n      jump\t// in\n    tag_103:\n        /* \"#utility.yul\":373:492   */\n    tag_102:\n        /* \"#utility.yul\":531:532   */\n      0x00\n        /* \"#utility.yul\":556:609   */\n      tag_105\n        /* \"#utility.yul\":601:608   */\n      dup5\n        /* \"#utility.yul\":592:598   */\n      dup3\n        /* \"#utility.yul\":581:590   */\n      dup6\n        /* \"#utility.yul\":577:599   */\n      add\n        /* \"#utility.yul\":556:609   */\n      tag_93\n      jump\t// in\n    tag_105:\n        /* \"#utility.yul\":546:609   */\n      swap2\n      pop\n        /* \"#utility.yul\":502:619   */\n      pop\n        /* \"#utility.yul\":297:626   */\n      swap3\n      swap2\n      pop\n      pop\n      jump\t// out\n        /* \"#utility.yul\":632:1106   */\n    tag_54:\n        /* \"#utility.yul\":700:706   */\n      0x00\n        /* \"#utility.yul\":708:714   */\n      dup1\n        /* \"#utility.yul\":757:759   */\n      0x40\n        /* \"#utility.yul\":745:754   */\n      dup4\n        /* \"#utility.yul\":736:743   */\n      dup6\n        /* \"#utility.yul\":732:755   */\n      sub\n        /* \"#utility.yul\":728:760   */\n      slt\n        /* \"#utility.yul\":725:844   */\n      iszero\n      tag_107\n      jumpi\n        /* \"#utility.yul\":763:842   */\n      tag_108\n      tag_104\n      jump\t// in\n    tag_108:\n        /* \"#utility.yul\":725:844   */\n    tag_107:\n        /* \"#utility.yul\":883:884   */\n      0x00\n        /* \"#utility.yul\":908:961   */\n      tag_109\n        /* \"#utility.yul\":953:960   */\n      dup6\n        /* \"#utility.yul\":944:950   */\n      dup3\n        /* \"#utility.yul\":933:942   */\n      dup7\n        /* \"#utility.yul\":929:951   */\n      add\n        /* \"#utility.yul\":908:961   */\n      tag_93\n      jump\t// in\n    tag_109:\n        /* \"#utility.yul\":898:961   */\n      swap3\n      pop\n        /* \"#utility.yul\":854:971   */\n      pop\n        /* \"#utility.yul\":1010:1012   */\n      0x20\n        /* \"#utility.yul\":1036:1089   */\n      tag_110\n        /* \"#utility.yul\":1081:1088   */\n      dup6\n        /* \"#utility.yul\":1072:1078   */\n      dup3\n        /* \"#utility.yul\":1061:1070   */\n      dup7\n        /* \"#utility.yul\":1057:1079   */\n      add\n        /* \"#utility.yul\":1036:1089   */\n      tag_93\n      jump\t// in\n    tag_110:\n        /* \"#utility.yul\":1026:1089   */\n      swap2\n      pop\n        /* \"#utility.yul\":981:1099   */\n      pop\n        /* \"#utility.yul\":632:1106   */\n      swap3\n      pop\n      swap3\n      swap1\n      pop\n      jump\t// out\n        /* \"#utility.yul\":1112:1731   */\n    tag_22:\n        /* \"#utility.yul\":1189:1195   */\n      0x00\n        /* \"#utility.yul\":1197:1203   */\n      dup1\n        /* \"#utility.yul\":1205:1211   */\n      0x00\n        /* \"#utility.yul\":1254:1256   */\n      0x60\n        /* \"#utility.yul\":1242:1251   */\n      dup5\n        /* \"#utility.yul\":1233:1240   */\n      dup7\n        /* \"#utility.yul\":1229:1252   */\n      sub\n        /* \"#utility.yul\":1225:1257   */\n      slt\n        /* \"#utility.yul\":1222:1341   */\n      iszero\n      tag_112\n      jumpi\n        /* \"#utility.yul\":1260:1339   */\n      tag_113\n      tag_104\n      jump\t// in\n    tag_113:\n        /* \"#utility.yul\":1222:1341   */\n    tag_112:\n        /* \"#utility.yul\":1380:1381   */\n      0x00\n        /* \"#utility.yul\":1405:1458   */\n      tag_114\n        /* \"#utility.yul\":1450:1457   */\n      dup7\n        /* \"#utility.yul\":1441:1447   */\n      dup3\n        /* \"#utility.yul\":1430:1439   */\n      dup8\n        /* \"#utility.yul\":1426:1448   */\n      add\n        /* \"#utility.yul\":1405:1458   */\n      tag_93\n      jump\t// in\n    tag_114:\n        /* \"#utility.yul\":1395:1458   */\n      swap4\n      pop\n        /* \"#utility.yul\":1351:1468   */\n      pop\n        /* \"#utility.yul\":1507:1509   */\n      0x20\n        /* \"#utility.yul\":1533:1586   */\n      tag_115\n        /* \"#utility.yul\":1578:1585   */\n      dup7\n        /* \"#utility.yul\":1569:1575   */\n      dup3\n        /* \"#utility.yul\":1558:1567   */\n      dup8\n        /* \"#utility.yul\":1554:1576   */\n      add\n        /* \"#utility.yul\":1533:1586   */\n      tag_93\n      jump\t// in\n    tag_115:\n        /* \"#utility.yul\":1523:1586   */\n      swap3\n      pop\n        /* \"#utility.yul\":1478:1596   */\n      pop\n        /* \"#utility.yul\":1635:1637   */\n      0x40\n        /* \"#utility.yul\":1661:1714   */\n      tag_116\n        /* \"#utility.yul\":1706:1713   */\n      dup7\n        /* \"#utility.yul\":1697:1703   */\n      dup3\n        /* \"#utility.yul\":1686:1695   */\n      dup8\n        /* \"#utility.yul\":1682:1704   */\n      add\n        /* \"#utility.yul\":1661:1714   */\n      tag_97\n      jump\t// in\n    tag_116:\n        /* \"#utility.yul\":1651:1714   */\n      swap2\n      pop\n        /* \"#utility.yul\":1606:1724   */\n      pop\n        /* \"#utility.yul\":1112:1731   */\n      swap3\n      pop\n      swap3\n      pop\n      swap3\n      jump\t// out\n        /* \"#utility.yul\":1737:2211   */\n    tag_16:\n        /* \"#utility.yul\":1805:1811   */\n      0x00\n        /* \"#utility.yul\":1813:1819   */\n      dup1\n        /* \"#utility.yul\":1862:1864   */\n      0x40\n        /* \"#utility.yul\":1850:1859   */\n      dup4\n        /* \"#utility.yul\":1841:1848   */\n      dup6\n        /* \"#utility.yul\":1837:1860   */\n      sub\n        /* \"#utility.yul\":1833:1865   */\n      slt\n        /* \"#utility.yul\":1830:1949   */\n      iszero\n      tag_118\n      jumpi\n        /* \"#utility.yul\":1868:1947   */\n      tag_119\n      tag_104\n      jump\t// in\n    tag_119:\n        /* \"#utility.yul\":1830:1949   */\n    tag_118:\n        /* \"#utility.yul\":1988:1989   */\n      0x00\n        /* \"#utility.yul\":2013:2066   */\n      tag_120\n        /* \"#utility.yul\":2058:2065   */\n      dup6\n        /* \"#utility.yul\":2049:2055   */\n      dup3\n        /* \"#utility.yul\":2038:2047   */\n      dup7\n        /* \"#utility.yul\":2034:2056   */\n      add\n        /* \"#utility.yul\":2013:2066   */\n      tag_93\n      jump\t// in\n    tag_120:\n        /* \"#utility.yul\":2003:2066   */\n      swap3\n      pop\n        /* \"#utility.yul\":1959:2076   */\n      pop\n        /* \"#utility.yul\":2115:2117   */\n      0x20\n        /* \"#utility.yul\":2141:2194   */\n      tag_121\n        /* \"#utility.yul\":2186:2193   */\n      dup6\n        /* \"#utility.yul\":2177:2183   */\n      dup3\n        /* \"#utility.yul\":2166:2175   */\n      dup7\n        /* \"#utility.yul\":2162:2184   */\n      add\n        /* \"#utility.yul\":2141:2194   */\n      tag_97\n      jump\t// in\n    tag_121:\n        /* \"#utility.yul\":2131:2194   */\n      swap2\n      pop\n        /* \"#utility.yul\":2086:2204   */\n      pop\n        /* \"#utility.yul\":1737:2211   */\n      swap3\n      pop\n      swap3\n      swap1\n      pop\n      jump\t// out\n        /* \"#utility.yul\":2217:2326   */\n    tag_122:\n        /* \"#utility.yul\":2298:2319   */\n      tag_124\n        /* \"#utility.yul\":2313:2318   */\n      dup2\n        /* \"#utility.yul\":2298:2319   */\n      tag_125\n      jump\t// in\n    tag_124:\n        /* \"#utility.yul\":2293:2296   */\n      dup3\n        /* \"#utility.yul\":2286:2320   */\n      mstore\n        /* \"#utility.yul\":2217:2326   */\n      pop\n      pop\n      jump\t// out\n        /* \"#utility.yul\":2332:2696   */\n    tag_126:\n        /* \"#utility.yul\":2420:2423   */\n      0x00\n        /* \"#utility.yul\":2448:2487   */\n      tag_128\n        /* \"#utility.yul\":2481:2486   */\n      dup3\n        /* \"#utility.yul\":2448:2487   */\n      tag_129\n      jump\t// in\n    tag_128:\n        /* \"#utility.yul\":2503:2574   */\n      tag_130\n        /* \"#utility.yul\":2567:2573   */\n      dup2\n        /* \"#utility.yul\":2562:2565   */\n      dup6\n        /* \"#utility.yul\":2503:2574   */\n      tag_131\n      jump\t// in\n    tag_130:\n        /* \"#utility.yul\":2496:2574   */\n      swap4\n      pop\n        /* \"#utility.yul\":2583:2635   */\n      tag_132\n        /* \"#utility.yul\":2628:2634   */\n      dup2\n        /* \"#utility.yul\":2623:2626   */\n      dup6\n        /* \"#utility.yul\":2616:2620   */\n      0x20\n        /* \"#utility.yul\":2609:2614   */\n      dup7\n        /* \"#utility.yul\":2605:2621   */\n      add\n        /* \"#utility.yul\":2583:2635   */\n      tag_133\n      jump\t// in\n    tag_132:\n        /* \"#utility.yul\":2660:2689   */\n      tag_134\n        /* \"#utility.yul\":2682:2688   */\n      dup2\n        /* \"#utility.yul\":2660:2689   */\n      tag_135\n      jump\t// in\n    tag_134:\n        /* \"#utility.yul\":2655:2658   */\n      dup5\n        /* \"#utility.yul\":2651:2690   */\n      add\n        /* \"#utility.yul\":2644:2690   */\n      swap2\n      pop\n        /* \"#utility.yul\":2424:2696   */\n      pop\n        /* \"#utility.yul\":2332:2696   */\n      swap3\n      swap2\n      pop\n      pop\n      jump\t// out\n        /* \"#utility.yul\":2702:3068   */\n    tag_136:\n        /* \"#utility.yul\":2844:2847   */\n      0x00\n        /* \"#utility.yul\":2865:2932   */\n      tag_138\n        /* \"#utility.yul\":2929:2931   */\n      0x12\n        /* \"#utility.yul\":2924:2927   */\n      dup4\n        /* \"#utility.yul\":2865:2932   */\n      tag_131\n      jump\t// in\n    tag_138:\n        /* \"#utility.yul\":2858:2932   */\n      swap2\n      pop\n        /* \"#utility.yul\":2941:3034   */\n      tag_139\n        /* \"#utility.yul\":3030:3033   */\n      dup3\n        /* \"#utility.yul\":2941:3034   */\n      tag_140\n      jump\t// in\n    tag_139:\n        /* \"#utility.yul\":3059:3061   */\n      0x20\n        /* \"#utility.yul\":3054:3057   */\n      dup3\n        /* \"#utility.yul\":3050:3062   */\n      add\n        /* \"#utility.yul\":3043:3062   */\n      swap1\n      pop\n        /* \"#utility.yul\":2702:3068   */\n      swap2\n      swap1\n      pop\n      jump\t// out\n        /* \"#utility.yul\":3074:3440   */\n    tag_141:\n        /* \"#utility.yul\":3216:3219   */\n      0x00\n        /* \"#utility.yul\":3237:3304   */\n      tag_143\n        /* \"#utility.yul\":3301:3303   */\n      0x12\n        /* \"#utility.yul\":3296:3299   */\n      dup4\n        /* \"#utility.yul\":3237:3304   */\n      tag_131\n      jump\t// in\n    tag_143:\n        /* \"#utility.yul\":3230:3304   */\n      swap2\n      pop\n        /* \"#utility.yul\":3313:3406   */\n      tag_144\n        /* \"#utility.yul\":3402:3405   */\n      dup3\n        /* \"#utility.yul\":3313:3406   */\n      tag_145\n      jump\t// in\n    tag_144:\n        /* \"#utility.yul\":3431:3433   */\n      0x20\n        /* \"#utility.yul\":3426:3429   */\n      dup3\n        /* \"#utility.yul\":3422:3434   */\n      add\n        /* \"#utility.yul\":3415:3434   */\n      swap1\n      pop\n        /* \"#utility.yul\":3074:3440   */\n      swap2\n      swap1\n      pop\n      jump\t// out\n        /* \"#utility.yul\":3446:3812   */\n    tag_146:\n        /* \"#utility.yul\":3588:3591   */\n      0x00\n        /* \"#utility.yul\":3609:3676   */\n      tag_148\n        /* \"#utility.yul\":3673:3675   */\n      0x11\n        /* \"#utility.yul\":3668:3671   */\n      dup4\n        /* \"#utility.yul\":3609:3676   */\n      tag_131\n      jump\t// in\n    tag_148:\n        /* \"#utility.yul\":3602:3676   */\n      swap2\n      pop\n        /* \"#utility.yul\":3685:3778   */\n      tag_149\n        /* \"#utility.yul\":3774:3777   */\n      dup3\n        /* \"#utility.yul\":3685:3778   */\n      tag_150\n      jump\t// in\n    tag_149:\n        /* \"#utility.yul\":3803:3805   */\n      0x20\n        /* \"#utility.yul\":3798:3801   */\n      dup3\n        /* \"#utility.yul\":3794:3806   */\n      add\n        /* \"#utility.yul\":3787:3806   */\n      swap1\n      pop\n        /* \"#utility.yul\":3446:3812   */\n      swap2\n      swap1\n      pop\n      jump\t// out\n        /* \"#utility.yul\":3818:3936   */\n    tag_151:\n        /* \"#utility.yul\":3905:3929   */\n      tag_153\n        /* \"#utility.yul\":3923:3928   */\n      dup2\n        /* \"#utility.yul\":3905:3929   */\n      tag_154\n      jump\t// in\n    tag_153:\n        /* \"#utility.yul\":3900:3903   */\n      dup3\n        /* \"#utility.yul\":3893:3930   */\n      mstore\n        /* \"#utility.yul\":3818:3936   */\n      pop\n      pop\n      jump\t// out\n        /* \"#utility.yul\":3942:4152   */\n    tag_19:\n        /* \"#utility.yul\":4029:4033   */\n      0x00\n        /* \"#utility.yul\":4067:4069   */\n      0x20\n        /* \"#utility.yul\":4056:4065   */\n      dup3\n        /* \"#utility.yul\":4052:4070   */\n      add\n        /* \"#utility.yul\":4044:4070   */\n      swap1\n      pop\n        /* \"#utility.yul\":4080:4145   */\n      tag_156\n        /* \"#utility.yul\":4142:4143   */\n      0x00\n        /* \"#utility.yul\":4131:4140   */\n      dup4\n        /* \"#utility.yul\":4127:4144   */\n      add\n        /* \"#utility.yul\":4118:4124   */\n      dup5\n        /* \"#utility.yul\":4080:4145   */\n      tag_122\n      jump\t// in\n    tag_156:\n        /* \"#utility.yul\":3942:4152   */\n      swap3\n      swap2\n      pop\n      pop\n      jump\t// out\n        /* \"#utility.yul\":4158:4471   */\n    tag_44:\n        /* \"#utility.yul\":4271:4275   */\n      0x00\n        /* \"#utility.yul\":4309:4311   */\n      0x20\n        /* \"#utility.yul\":4298:4307   */\n      dup3\n        /* \"#utility.yul\":4294:4312   */\n      add\n        /* \"#utility.yul\":4286:4312   */\n      swap1\n      pop\n        /* \"#utility.yul\":4358:4367   */\n      dup2\n        /* \"#utility.yul\":4352:4356   */\n      dup2\n        /* \"#utility.yul\":4348:4368   */\n      sub\n        /* \"#utility.yul\":4344:4345   */\n      0x00\n        /* \"#utility.yul\":4333:4342   */\n      dup4\n        /* \"#utility.yul\":4329:4346   */\n      add\n        /* \"#utility.yul\":4322:4369   */\n      mstore\n        /* \"#utility.yul\":4386:4464   */\n      tag_158\n        /* \"#utility.yul\":4459:4463   */\n      dup2\n        /* \"#utility.yul\":4450:4456   */\n      dup5\n        /* \"#utility.yul\":4386:4464   */\n      tag_126\n      jump\t// in\n    tag_158:\n        /* \"#utility.yul\":4378:4464   */\n      swap1\n      pop\n        /* \"#utility.yul\":4158:4471   */\n      swap3\n      swap2\n      pop\n      pop\n      jump\t// out\n        /* \"#utility.yul\":4477:4896   */\n    tag_88:\n        /* \"#utility.yul\":4643:4647   */\n      0x00\n        /* \"#utility.yul\":4681:4683   */\n      0x20\n        /* \"#utility.yul\":4670:4679   */\n      dup3\n        /* \"#utility.yul\":4666:4684   */\n      add\n        /* \"#utility.yul\":4658:4684   */\n      swap1\n      pop\n        /* \"#utility.yul\":4730:4739   */\n      dup2\n        /* \"#utility.yul\":4724:4728   */\n      dup2\n        /* \"#utility.yul\":4720:4740   */\n      sub\n        /* \"#utility.yul\":4716:4717   */\n      0x00\n        /* \"#utility.yul\":4705:4714   */\n      dup4\n        /* \"#utility.yul\":4701:4718   */\n      add\n        /* \"#utility.yul\":4694:4741   */\n      mstore\n        /* \"#utility.yul\":4758:4889   */\n      tag_160\n        /* \"#utility.yul\":4884:4888   */\n      dup2\n        /* \"#utility.yul\":4758:4889   */\n      tag_136\n      jump\t// in\n    tag_160:\n        /* \"#utility.yul\":4750:4889   */\n      swap1\n      pop\n        /* \"#utility.yul\":4477:4896   */\n      swap2\n      swap1\n      pop\n      jump\t// out\n        /* \"#utility.yul\":4902:5321   */\n    tag_66:\n        /* \"#utility.yul\":5068:5072   */\n      0x00\n        /* \"#utility.yul\":5106:5108   */\n      0x20\n        /* \"#utility.yul\":5095:5104   */\n      dup3\n        /* \"#utility.yul\":5091:5109   */\n      add\n        /* \"#utility.yul\":5083:5109   */\n      swap1\n      pop\n        /* \"#utility.yul\":5155:5164   */\n      dup2\n        /* \"#utility.yul\":5149:5153   */\n      dup2\n        /* \"#utility.yul\":5145:5165   */\n      sub\n        /* \"#utility.yul\":5141:5142   */\n      0x00\n        /* \"#utility.yul\":5130:5139   */\n      dup4\n        /* \"#utility.yul\":5126:5143   */\n      add\n        /* \"#utility.yul\":5119:5166   */\n      mstore\n        /* \"#utility.yul\":5183:5314   */\n      tag_162\n        /* \"#utility.yul\":5309:5313   */\n      dup2\n        /* \"#utility.yul\":5183:5314   */\n      tag_141\n      jump\t// in\n    tag_162:\n        /* \"#utility.yul\":5175:5314   */\n      swap1\n      pop\n        /* \"#utility.yul\":4902:5321   */\n      swap2\n      swap1\n      pop\n      jump\t// out\n        /* \"#utility.yul\":5327:5746   */\n    tag_62:\n        /* \"#utility.yul\":5493:5497   */\n      0x00\n        /* \"#utility.yul\":5531:5533   */\n      0x20\n        /* \"#utility.yul\":5520:5529   */\n      dup3\n        /* \"#utility.yul\":5516:5534   */\n      add\n        /* \"#utility.yul\":5508:5534   */\n      swap1\n      pop\n        /* \"#utility.yul\":5580:5589   */\n      dup2\n        /* \"#utility.yul\":5574:5578   */\n      dup2\n        /* \"#utility.yul\":5570:5590   */\n      sub\n        /* \"#utility.yul\":5566:5567   */\n      0x00\n        /* \"#utility.yul\":5555:5564   */\n      dup4\n        /* \"#utility.yul\":5551:5568   */\n      add\n        /* \"#utility.yul\":5544:5591   */\n      mstore\n        /* \"#utility.yul\":5608:5739   */\n      tag_164\n        /* \"#utility.yul\":5734:5738   */\n      dup2\n        /* \"#utility.yul\":5608:5739   */\n      tag_146\n      jump\t// in\n    tag_164:\n        /* \"#utility.yul\":5600:5739   */\n      swap1\n      pop\n        /* \"#utility.yul\":5327:5746   */\n      swap2\n      swap1\n      pop\n      jump\t// out\n        /* \"#utility.yul\":5752:5974   */\n    tag_30:\n        /* \"#utility.yul\":5845:5849   */\n      0x00\n        /* \"#utility.yul\":5883:5885   */\n      0x20\n        /* \"#utility.yul\":5872:5881   */\n      dup3\n        /* \"#utility.yul\":5868:5886   */\n      add\n        /* \"#utility.yul\":5860:5886   */\n      swap1\n      pop\n        /* \"#utility.yul\":5896:5967   */\n      tag_166\n        /* \"#utility.yul\":5964:5965   */\n      0x00\n        /* \"#utility.yul\":5953:5962   */\n      dup4\n        /* \"#utility.yul\":5949:5966   */\n      add\n        /* \"#utility.yul\":5940:5946   */\n      dup5\n        /* \"#utility.yul\":5896:5967   */\n      tag_151\n      jump\t// in\n    tag_166:\n        /* \"#utility.yul\":5752:5974   */\n      swap3\n      swap2\n      pop\n      pop\n      jump\t// out\n        /* \"#utility.yul\":6061:6160   */\n    tag_129:\n        /* \"#utility.yul\":6113:6119   */\n      0x00\n        /* \"#utility.yul\":6147:6152   */\n      dup2\n        /* \"#utility.yul\":6141:6153   */\n      mload\n        /* \"#utility.yul\":6131:6153   */\n      swap1\n      pop\n        /* \"#utility.yul\":6061:6160   */\n      swap2\n      swap1\n      pop\n      jump\t// out\n        /* \"#utility.yul\":6166:6335   */\n    tag_131:\n        /* \"#utility.yul\":6250:6261   */\n      0x00\n        /* \"#utility.yul\":6284:6290   */\n      dup3\n        /* \"#utility.yul\":6279:6282   */\n      dup3\n        /* \"#utility.yul\":6272:6291   */\n      mstore\n        /* \"#utility.yul\":6324:6328   */\n      0x20\n        /* \"#utility.yul\":6319:6322   */\n      dup3\n        /* \"#utility.yul\":6315:6329   */\n      add\n        /* \"#utility.yul\":6300:6329   */\n      swap1\n      pop\n        /* \"#utility.yul\":6166:6335   */\n      swap3\n      swap2\n      pop\n      pop\n      jump\t// out\n        /* \"#utility.yul\":6341:6646   */\n    tag_68:\n        /* \"#utility.yul\":6381:6384   */\n      0x00\n        /* \"#utility.yul\":6400:6420   */\n      tag_172\n        /* \"#utility.yul\":6418:6419   */\n      dup3\n        /* \"#utility.yul\":6400:6420   */\n      tag_154\n      jump\t// in\n    tag_172:\n        /* \"#utility.yul\":6395:6420   */\n      swap2\n      pop\n        /* \"#utility.yul\":6434:6454   */\n      tag_173\n        /* \"#utility.yul\":6452:6453   */\n      dup4\n        /* \"#utility.yul\":6434:6454   */\n      tag_154\n      jump\t// in\n    tag_173:\n        /* \"#utility.yul\":6429:6454   */\n      swap3\n      pop\n        /* \"#utility.yul\":6588:6589   */\n      dup3\n        /* \"#utility.yul\":6520:6586   */\n      0xffffffffffffffffffffffffffffffffffffffffffffffffffffffffffffffff\n        /* \"#utility.yul\":6516:6590   */\n      sub\n        /* \"#utility.yul\":6513:6514   */\n      dup3\n        /* \"#utility.yul\":6510:6591   */\n      gt\n        /* \"#utility.yul\":6507:6614   */\n      iszero\n      tag_174\n      jumpi\n        /* \"#utility.yul\":6594:6612   */\n      tag_175\n      tag_176\n      jump\t// in\n    tag_175:\n        /* \"#utility.yul\":6507:6614   */\n    tag_174:\n        /* \"#utility.yul\":6638:6639   */\n      dup3\n        /* \"#utility.yul\":6635:6636   */\n      dup3\n        /* \"#utility.yul\":6631:6640   */\n      add\n        /* \"#utility.yul\":6624:6640   */\n      swap1\n      pop\n        /* \"#utility.yul\":6341:6646   */\n      swap3\n      swap2\n      pop\n      pop\n      jump\t// out\n        /* \"#utility.yul\":6652:6843   */\n    tag_70:\n        /* \"#utility.yul\":6692:6696   */\n      0x00\n        /* \"#utility.yul\":6712:6732   */\n      tag_178\n        /* \"#utility.yul\":6730:6731   */\n      dup3\n        /* \"#utility.yul\":6712:6732   */\n      tag_154\n      jump\t// in\n    tag_178:\n        /* \"#utility.yul\":6707:6732   */\n      swap2\n      pop\n        /* \"#utility.yul\":6746:6766   */\n      tag_179\n        /* \"#utility.yul\":6764:6765   */\n      dup4\n        /* \"#utility.yul\":6746:6766   */\n      tag_154\n      jump\t// in\n    tag_179:\n        /* \"#utility.yul\":6741:6766   */\n      swap3\n      pop\n        /* \"#utility.yul\":6785:6786   */\n      dup3\n        /* \"#utility.yul\":6782:6783   */\n      dup3\n        /* \"#utility.yul\":6779:6787   */\n      lt\n        /* \"#utility.yul\":6776:6810   */\n      iszero\n      tag_180\n      jumpi\n        /* \"#utility.yul\":6790:6808   */\n      tag_181\n      tag_176\n      jump\t// in\n    tag_181:\n        /* \"#utility.yul\":6776:6810   */\n    tag_180:\n        /* \"#utility.yul\":6835:6836   */\n      dup3\n        /* \"#utility.yul\":6832:6833   */\n      dup3\n        /* \"#utility.yul\":6828:6837   */\n      sub\n        /* \"#utility.yul\":6820:6837   */\n      swap1\n      pop\n        /* \"#utility.yul\":6652:6843   */\n      swap3\n      swap2\n      pop\n      pop\n      jump\t// out\n        /* \"#utility.yul\":6849:6945   */\n    tag_182:\n        /* \"#utility.yul\":6886:6893   */\n      0x00\n        /* \"#utility.yul\":6915:6939   */\n      tag_184\n        /* \"#utility.yul\":6933:6938   */\n      dup3\n        /* \"#utility.yul\":6915:6939   */\n      tag_185\n      jump\t// in\n    tag_184:\n        /* \"#utility.yul\":6904:6939   */\n      swap1\n      pop\n        /* \"#utility.yul\":6849:6945   */\n      swap2\n      swap1\n      pop\n      jump\t// out\n        /* \"#utility.yul\":6951:7041   */\n    tag_125:\n        /* \"#utility.yul\":6985:6992   */\n      0x00\n        /* \"#utility.yul\":7028:7033   */\n      dup2\n        /* \"#utility.yul\":7021:7034   */\n      iszero\n        /* \"#utility.yul\":7014:7035   */\n      iszero\n        /* \"#utility.yul\":7003:7035   */\n      swap1\n      pop\n        /* \"#utility.yul\":6951:7041   */\n      swap2\n      swap1\n      pop\n      jump\t// out\n        /* \"#utility.yul\":7047:7173   */\n    tag_185:\n        /* \"#utility.yul\":7084:7091   */\n      0x00\n        /* \"#utility.yul\":7124:7166   */\n      0xffffffffffffffffffffffffffffffffffffffff\n        /* \"#utility.yul\":7117:7122   */\n      dup3\n        /* \"#utility.yul\":7113:7167   */\n      and\n        /* \"#utility.yul\":7102:7167   */\n      swap1\n      pop\n        /* \"#utility.yul\":7047:7173   */\n      swap2\n      swap1\n      pop\n      jump\t// out\n        /* \"#utility.yul\":7179:7256   */\n    tag_154:\n        /* \"#utility.yul\":7216:7223   */\n      0x00\n        /* \"#utility.yul\":7245:7250   */\n      dup2\n        /* \"#utility.yul\":7234:7250   */\n      swap1\n      pop\n        /* \"#utility.yul\":7179:7256   */\n      swap2\n      swap1\n      pop\n      jump\t// out\n        /* \"#utility.yul\":7262:7569   */\n    tag_133:\n        /* \"#utility.yul\":7330:7331   */\n      0x00\n        /* \"#utility.yul\":7340:7453   */\n    tag_190:\n        /* \"#utility.yul\":7354:7360   */\n      dup4\n        /* \"#utility.yul\":7351:7352   */\n      dup2\n        /* \"#utility.yul\":7348:7361   */\n      lt\n        /* \"#utility.yul\":7340:7453   */\n      iszero\n      tag_192\n      jumpi\n        /* \"#utility.yul\":7439:7440   */\n      dup1\n        /* \"#utility.yul\":7434:7437   */\n      dup3\n        /* \"#utility.yul\":7430:7441   */\n      add\n        /* \"#utility.yul\":7424:7442   */\n      mload\n        /* \"#utility.yul\":7420:7421   */\n      dup2\n        /* \"#utility.yul\":7415:7418   */\n      dup5\n        /* \"#utility.yul\":7411:7422   */\n      add\n        /* \"#utility.yul\":7404:7443   */\n      mstore\n        /* \"#utility.yul\":7376:7378   */\n      0x20\n        /* \"#utility.yul\":7373:7374   */\n      dup2\n        /* \"#utility.yul\":7369:7379   */\n      add\n        /* \"#utility.yul\":7364:7379   */\n      swap1\n      pop\n        /* \"#utility.yul\":7340:7453   */\n      jump(tag_190)\n    tag_192:\n        /* \"#utility.yul\":7471:7477   */\n      dup4\n        /* \"#utility.yul\":7468:7469   */\n      dup2\n        /* \"#utility.yul\":7465:7478   */\n      gt\n        /* \"#utility.yul\":7462:7563   */\n      iszero\n      tag_193\n      jumpi\n        /* \"#utility.yul\":7551:7552   */\n      0x00\n        /* \"#utility.yul\":7542:7548   */\n      dup5\n        /* \"#utility.yul\":7537:7540   */\n      dup5\n        /* \"#utility.yul\":7533:7549   */\n      add\n        /* \"#utility.yul\":7526:7553   */\n      mstore\n        /* \"#utility.yul\":7462:7563   */\n    tag_193:\n        /* \"#utility.yul\":7311:7569   */\n      pop\n        /* \"#utility.yul\":7262:7569   */\n      pop\n      pop\n      pop\n      jump\t// out\n        /* \"#utility.yul\":7575:7895   */\n    tag_74:\n        /* \"#utility.yul\":7619:7625   */\n      0x00\n        /* \"#utility.yul\":7656:7657   */\n      0x02\n        /* \"#utility.yul\":7650:7654   */\n      dup3\n        /* \"#utility.yul\":7646:7658   */\n      div\n        /* \"#utility.yul\":7636:7658   */\n      swap1\n      pop\n        /* \"#utility.yul\":7703:7704   */\n      0x01\n        /* \"#utility.yul\":7697:7701   */\n      dup3\n        /* \"#utility.yul\":7693:7705   */\n      and\n        /* \"#utility.yul\":7724:7742   */\n      dup1\n        /* \"#utility.yul\":7714:7795   */\n      tag_195\n      jumpi\n        /* \"#utility.yul\":7780:7784   */\n      0x7f\n        /* \"#utility.yul\":7772:7778   */\n      dup3\n        /* \"#utility.yul\":7768:7785   */\n      and\n        /* \"#utility.yul\":7758:7785   */\n      swap2\n      pop\n        /* \"#utility.yul\":7714:7795   */\n    tag_195:\n        /* \"#utility.yul\":7842:7844   */\n      0x20\n        /* \"#utility.yul\":7834:7840   */\n      dup3\n        /* \"#utility.yul\":7831:7845   */\n      lt\n        /* \"#utility.yul\":7811:7829   */\n      dup2\n        /* \"#utility.yul\":7808:7846   */\n      eq\n        /* \"#utility.yul\":7805:7889   */\n      iszero\n      tag_196\n      jumpi\n        /* \"#utility.yul\":7861:7879   */\n      tag_197\n      tag_198\n      jump\t// in\n    tag_197:\n        /* \"#utility.yul\":7805:7889   */\n    tag_196:\n        /* \"#utility.yul\":7626:7895   */\n      pop\n        /* \"#utility.yul\":7575:7895   */\n      swap2\n      swap1\n      pop\n      jump\t// out\n        /* \"#utility.yul\":7901:8081   */\n    tag_176:\n        /* \"#utility.yul\":7949:8026   */\n      0x4e487b7100000000000000000000000000000000000000000000000000000000\n        /* \"#utility.yul\":7946:7947   */\n      0x00\n        /* \"#utility.yul\":7939:8027   */\n      mstore\n        /* \"#utility.yul\":8046:8050   */\n      0x11\n        /* \"#utility.yul\":8043:8044   */\n      0x04\n        /* \"#utility.yul\":8036:8051   */\n      mstore\n        /* \"#utility.yul\":8070:8074   */\n      0x24\n        /* \"#utility.yul\":8067:8068   */\n      0x00\n        /* \"#utility.yul\":8060:8075   */\n      revert\n        /* \"#utility.yul\":8087:8267   */\n    tag_198:\n        /* \"#utility.yul\":8135:8212   */\n      0x4e487b7100000000000000000000000000000000000000000000000000000000\n        /* \"#utility.yul\":8132:8133   */\n      0x00\n        /* \"#utility.yul\":8125:8213   */\n      mstore\n        /* \"#utility.yul\":8232:8236   */\n      0x22\n        /* \"#utility.yul\":8229:8230   */\n      0x04\n        /* \"#utility.yul\":8222:8237   */\n      mstore\n        /* \"#utility.yul\":8256:8260   */\n      0x24\n        /* \"#utility.yul\":8253:8254   */\n      0x00\n        /* \"#utility.yul\":8246:8261   */\n      revert\n        /* \"#utility.yul\":8396:8513   */\n    tag_104:\n        /* \"#utility.yul\":8505:8506   */\n      0x00\n        /* \"#utility.yul\":8502:8503   */\n      dup1\n        /* \"#utility.yul\":8495:8507   */\n      revert\n        /* \"#utility.yul\":8519:8621   */\n    tag_135:\n        /* \"#utility.yul\":8560:8566   */\n      0x00\n        /* \"#utility.yul\":8611:8613   */\n      0x1f\n        /* \"#utility.yul\":8607:8614   */\n      not\n        /* \"#utility.yul\":8602:8604   */\n      0x1f\n        /* \"#utility.yul\":8595:8600   */\n      dup4\n        /* \"#utility.yul\":8591:8605   */\n      add\n        /* \"#utility.yul\":8587:8615   */\n      and\n        /* \"#utility.yul\":8577:8615   */\n      swap1\n      pop\n        /* \"#utility.yul\":8519:8621   */\n      swap2\n      swap1\n      pop\n      jump\t// out\n        /* \"#utility.yul\":8627:8795   */\n    tag_140:\n        /* \"#utility.yul\":8767:8787   */\n      0x62616c616e6365206e6f7420656e6f7567680000000000000000000000000000\n        /* \"#utility.yul\":8763:8764   */\n      0x00\n        /* \"#utility.yul\":8755:8761   */\n      dup3\n        /* \"#utility.yul\":8751:8765   */\n      add\n        /* \"#utility.yul\":8744:8788   */\n      mstore\n        /* \"#utility.yul\":8627:8795   */\n      pop\n      jump\t// out\n        /* \"#utility.yul\":8801:8969   */\n    tag_145:\n        /* \"#utility.yul\":8941:8961   */\n      0x62616c616e636520697320746f6f206c6f770000000000000000000000000000\n        /* \"#utility.yul\":8937:8938   */\n      0x00\n        /* \"#utility.yul\":8929:8935   */\n      dup3\n        /* \"#utility.yul\":8925:8939   */\n      add\n        /* \"#utility.yul\":8918:8962   */\n      mstore\n        /* \"#utility.yul\":8801:8969   */\n      pop\n      jump\t// out\n        /* \"#utility.yul\":8975:9142   */\n    tag_150:\n        /* \"#utility.yul\":9115:9134   */\n      0x616c6c6f77616e636520746f6f206c6f77000000000000000000000000000000\n        /* \"#utility.yul\":9111:9112   */\n      0x00\n        /* \"#utility.yul\":9103:9109   */\n      dup3\n        /* \"#utility.yul\":9099:9113   */\n      add\n        /* \"#utility.yul\":9092:9135   */\n      mstore\n        /* \"#utility.yul\":8975:9142   */\n      pop\n      jump\t// out\n        /* \"#utility.yul\":9148:9270   */\n    tag_96:\n        /* \"#utility.yul\":9221:9245   */\n      tag_209\n        /* \"#utility.yul\":9239:9244   */\n      dup2\n        /* \"#utility.yul\":9221:9245   */\n      tag_182\n      jump\t// in\n    tag_209:\n        /* \"#utility.yul\":9214:9219   */\n      dup2\n        /* \"#utility.yul\":9211:9246   */\n      eq\n        /* \"#utility.yul\":9201:9264   */\n      tag_210\n      jumpi\n        /* \"#utility.yul\":9260:9261   */\n      0x00\n        /* \"#utility.yul\":9257:9258   */\n      dup1\n        /* \"#utility.yul\":9250:9262   */\n      revert\n        /* \"#utility.yul\":9201:9264   */\n    tag_210:\n        /* \"#utility.yul\":9148:9270   */\n      pop\n      jump\t// out\n        /* \"#utility.yul\":9276:9398   */\n    tag_100:\n        /* \"#utility.yul\":9349:9373   */\n      tag_212\n        /* \"#utility.yul\":9367:9372   */\n      dup2\n        /* \"#utility.yul\":9349:9373   */\n      tag_154\n      jump\t// in\n    tag_212:\n        /* \"#utility.yul\":9342:9347   */\n      dup2\n        /* \"#utility.yul\":9339:9374   */\n      eq\n        /* \"#utility.yul\":9329:9392   */\n      tag_213\n      jumpi\n        /* \"#utility.yul\":9388:9389   */\n      0x00\n        /* \"#utility.yul\":9385:9386   */\n      dup1\n        /* \"#utility.yul\":9378:9390   */\n      revert\n        /* \"#utility.yul\":9329:9392   */\n    tag_213:\n        /* \"#utility.yul\":9276:9398   */\n      pop\n      jump\t// out\n\n    auxdata: 0xa2646970667358221220b88e7f4ef157befa312c016e02c5412b01398726721e6370046b02e757678e6864736f6c63430008070033\n}\n",
				"bytecode": {
					"linkReferences": {},
					"object": "60806040526105dc6000556040518060400160405280600e81526020017f5475746f7269616c20546f6b656e000000000000000000000000000000000000815250600190805190602001906200005792919062000105565b506040518060400160405280600381526020017f54544b000000000000000000000000000000000000000000000000000000000081525060029080519060200190620000a592919062000105565b506012600355348015620000b857600080fd5b50600054600460003373ffffffffffffffffffffffffffffffffffffffff1673ffffffffffffffffffffffffffffffffffffffff168152602001908152602001600020819055506200021a565b8280546200011390620001b5565b90600052602060002090601f01602090048101928262000137576000855562000183565b82601f106200015257805160ff191683800117855562000183565b8280016001018555821562000183579182015b828111156200018257825182559160200191906001019062000165565b5b50905062000192919062000196565b5090565b5b80821115620001b157600081600090555060010162000197565b5090565b60006002820490506001821680620001ce57607f821691505b60208210811415620001e557620001e4620001eb565b5b50919050565b7f4e487b7100000000000000000000000000000000000000000000000000000000600052602260045260246000fd5b610db3806200022a6000396000f3fe608060405234801561001057600080fd5b506004361061009e5760003560e01c806370a082311161006657806370a082311461016f578063947a31681461019f57806395d89b41146101bd578063a9059cbb146101db578063dd62ed3e1461020b5761009e565b8063095ea7b3146100a357806323b872dd146100d357806327e235e314610103578063313ce567146101335780633940e9ee14610151575b600080fd5b6100bd60048036038101906100b89190610955565b61023b565b6040516100ca9190610a55565b60405180910390f35b6100ed60048036038101906100e89190610902565b61032d565b6040516100fa9190610a55565b60405180910390f35b61011d60048036038101906101189190610895565b610555565b60405161012a9190610af2565b60405180910390f35b61013b61056d565b6040516101489190610af2565b60405180910390f35b610159610573565b6040516101669190610af2565b60405180910390f35b61018960048036038101906101849190610895565b610579565b6040516101969190610af2565b60405180910390f35b6101a76105c2565b6040516101b49190610a70565b60405180910390f35b6101c5610650565b6040516101d29190610a70565b60405180910390f35b6101f560048036038101906101f09190610955565b6106de565b6040516102029190610a55565b60405180910390f35b610225600480360381019061022091906108c2565b610846565b6040516102329190610af2565b60405180910390f35b600081600560003373ffffffffffffffffffffffffffffffffffffffff1673ffffffffffffffffffffffffffffffffffffffff16815260200190815260200160002060008573ffffffffffffffffffffffffffffffffffffffff1673ffffffffffffffffffffffffffffffffffffffff168152602001908152602001600020819055508273ffffffffffffffffffffffffffffffffffffffff163373ffffffffffffffffffffffffffffffffffffffff167f8c5be1e5ebec7d5bd14f71427d1e84f3dd0314c0f7b2291e5b200ac8c7c3b9258460405161031b9190610af2565b60405180910390a36001905092915050565b600081600560008673ffffffffffffffffffffffffffffffffffffffff1673ffffffffffffffffffffffffffffffffffffffff16815260200190815260200160002060003373ffffffffffffffffffffffffffffffffffffffff1673ffffffffffffffffffffffffffffffffffffffff1681526020019081526020016000205410156103ee576040517f08c379a00000000000000000000000000000000000000000000000000000000081526004016103e590610ad2565b60405180910390fd5b816103f885610579565b1015610439576040517f08c379a000000000000000000000000000000000000000000000000000000000815260040161043090610ab2565b60405180910390fd5b81600460008573ffffffffffffffffffffffffffffffffffffffff1673ffffffffffffffffffffffffffffffffffffffff16815260200190815260200160002060008282546104889190610b29565b9250508190555081600460008673ffffffffffffffffffffffffffffffffffffffff1673ffffffffffffffffffffffffffffffffffffffff16815260200190815260200160002060008282546104de9190610b7f565b925050819055508273ffffffffffffffffffffffffffffffffffffffff168473ffffffffffffffffffffffffffffffffffffffff167fddf252ad1be2c89b69c2b068fc378daa952ba7f163c4a11628f55a4df523b3ef846040516105429190610af2565b60405180910390a3600190509392505050565b60046020528060005260406000206000915090505481565b60035481565b60005481565b6000600460008373ffffffffffffffffffffffffffffffffffffffff1673ffffffffffffffffffffffffffffffffffffffff168152602001908152602001600020549050919050565b600180546105cf90610c2e565b80601f01602080910402602001604051908101604052809291908181526020018280546105fb90610c2e565b80156106485780601f1061061d57610100808354040283529160200191610648565b820191906000526020600020905b81548152906001019060200180831161062b57829003601f168201915b505050505081565b6002805461065d90610c2e565b80601f016020809104026020016040519081016040528092919081815260200182805461068990610c2e565b80156106d65780601f106106ab576101008083540402835291602001916106d6565b820191906000526020600020905b8154815290600101906020018083116106b957829003601f168201915b505050505081565b6000816106ea33610579565b101561072b576040517f08c379a000000000000000000000000000000000000000000000000000000000815260040161072290610a92565b60405180910390fd5b81600460008573ffffffffffffffffffffffffffffffffffffffff1673ffffffffffffffffffffffffffffffffffffffff168152602001908152602001600020600082825461077a9190610b29565b9250508190555081600460003373ffffffffffffffffffffffffffffffffffffffff1673ffffffffffffffffffffffffffffffffffffffff16815260200190815260200160002060008282546107d09190610b7f565b925050819055508273ffffffffffffffffffffffffffffffffffffffff163373ffffffffffffffffffffffffffffffffffffffff167fddf252ad1be2c89b69c2b068fc378daa952ba7f163c4a11628f55a4df523b3ef846040516108349190610af2565b60405180910390a36001905092915050565b6005602052816000526040600020602052806000526040600020600091509150505481565b60008135905061087a81610d4f565b92915050565b60008135905061088f81610d66565b92915050565b6000602082840312156108ab576108aa610cbe565b5b60006108b98482850161086b565b91505092915050565b600080604083850312156108d9576108d8610cbe565b5b60006108e78582860161086b565b92505060206108f88582860161086b565b9150509250929050565b60008060006060848603121561091b5761091a610cbe565b5b60006109298682870161086b565b935050602061093a8682870161086b565b925050604061094b86828701610880565b9150509250925092565b6000806040838503121561096c5761096b610cbe565b5b600061097a8582860161086b565b925050602061098b85828601610880565b9150509250929050565b61099e81610bc5565b82525050565b60006109af82610b0d565b6109b98185610b18565b93506109c9818560208601610bfb565b6109d281610cc3565b840191505092915050565b60006109ea601283610b18565b91506109f582610cd4565b602082019050919050565b6000610a0d601283610b18565b9150610a1882610cfd565b602082019050919050565b6000610a30601183610b18565b9150610a3b82610d26565b602082019050919050565b610a4f81610bf1565b82525050565b6000602082019050610a6a6000830184610995565b92915050565b60006020820190508181036000830152610a8a81846109a4565b905092915050565b60006020820190508181036000830152610aab816109dd565b9050919050565b60006020820190508181036000830152610acb81610a00565b9050919050565b60006020820190508181036000830152610aeb81610a23565b9050919050565b6000602082019050610b076000830184610a46565b92915050565b600081519050919050565b600082825260208201905092915050565b6000610b3482610bf1565b9150610b3f83610bf1565b9250827fffffffffffffffffffffffffffffffffffffffffffffffffffffffffffffffff03821115610b7457610b73610c60565b5b828201905092915050565b6000610b8a82610bf1565b9150610b9583610bf1565b925082821015610ba857610ba7610c60565b5b828203905092915050565b6000610bbe82610bd1565b9050919050565b60008115159050919050565b600073ffffffffffffffffffffffffffffffffffffffff82169050919050565b6000819050919050565b60005b83811015610c19578082015181840152602081019050610bfe565b83811115610c28576000848401525b50505050565b60006002820490506001821680610c4657607f821691505b60208210811415610c5a57610c59610c8f565b5b50919050565b7f4e487b7100000000000000000000000000000000000000000000000000000000600052601160045260246000fd5b7f4e487b7100000000000000000000000000000000000000000000000000000000600052602260045260246000fd5b600080fd5b6000601f19601f8301169050919050565b7f62616c616e6365206e6f7420656e6f7567680000000000000000000000000000600082015250565b7f62616c616e636520697320746f6f206c6f770000000000000000000000000000600082015250565b7f616c6c6f77616e636520746f6f206c6f77000000000000000000000000000000600082015250565b610d5881610bb3565b8114610d6357600080fd5b50565b610d6f81610bf1565b8114610d7a57600080fd5b5056fea2646970667358221220b88e7f4ef157befa312c016e02c5412b01398726721e6370046b02e757678e6864736f6c63430008070033",
					"opcodes": "PUSH1 0x80 PUSH1 0x40 MSTORE PUSH2 0x5DC PUSH1 0x0 SSTORE PUSH1 0x40 MLOAD DUP1 PUSH1 0x40 ADD PUSH1 0x40 MSTORE DUP1 PUSH1 0xE DUP2 MSTORE PUSH1 0x20 ADD PUSH32 0x5475746F7269616C20546F6B656E000000000000000000000000000000000000 DUP2 MSTORE POP PUSH1 0x1 SWAP1 DUP1 MLOAD SWAP1 PUSH1 0x20 ADD SWAP1 PUSH3 0x57 SWAP3 SWAP2 SWAP1 PUSH3 0x105 JUMP JUMPDEST POP PUSH1 0x40 MLOAD DUP1 PUSH1 0x40 ADD PUSH1 0x40 MSTORE DUP1 PUSH1 0x3 DUP2 MSTORE PUSH1 0x20 ADD PUSH32 0x54544B0000000000000000000000000000000000000000000000000000000000 DUP2 MSTORE POP PUSH1 0x2 SWAP1 DUP1 MLOAD SWAP1 PUSH1 0x20 ADD SWAP1 PUSH3 0xA5 SWAP3 SWAP2 SWAP1 PUSH3 0x105 JUMP JUMPDEST POP PUSH1 0x12 PUSH1 0x3 SSTORE CALLVALUE DUP1 ISZERO PUSH3 0xB8 JUMPI PUSH1 0x0 DUP1 REVERT JUMPDEST POP PUSH1 0x0 SLOAD PUSH1 0x4 PUSH1 0x0 CALLER PUSH20 0xFFFFFFFFFFFFFFFFFFFFFFFFFFFFFFFFFFFFFFFF AND PUSH20 0xFFFFFFFFFFFFFFFFFFFFFFFFFFFFFFFFFFFFFFFF AND DUP2 MSTORE PUSH1 0x20 ADD SWAP1 DUP2 MSTORE PUSH1 0x20 ADD PUSH1 0x0 KECCAK256 DUP2 SWAP1 SSTORE POP PUSH3 0x21A JUMP JUMPDEST DUP3 DUP1 SLOAD PUSH3 0x113 SWAP1 PUSH3 0x1B5 JUMP JUMPDEST SWAP1 PUSH1 0x0 MSTORE PUSH1 0x20 PUSH1 0x0 KECCAK256 SWAP1 PUSH1 0x1F ADD PUSH1 0x20 SWAP1 DIV DUP2 ADD SWAP3 DUP3 PUSH3 0x137 JUMPI PUSH1 0x0 DUP6 SSTORE PUSH3 0x183 JUMP JUMPDEST DUP3 PUSH1 0x1F LT PUSH3 0x152 JUMPI DUP1 MLOAD PUSH1 0xFF NOT AND DUP4 DUP1 ADD OR DUP6 SSTORE PUSH3 0x183 JUMP JUMPDEST DUP3 DUP1 ADD PUSH1 0x1 ADD DUP6 SSTORE DUP3 ISZERO PUSH3 0x183 JUMPI SWAP2 DUP3 ADD JUMPDEST DUP3 DUP2 GT ISZERO PUSH3 0x182 JUMPI DUP3 MLOAD DUP3 SSTORE SWAP2 PUSH1 0x20 ADD SWAP2 SWAP1 PUSH1 0x1 ADD SWAP1 PUSH3 0x165 JUMP JUMPDEST JUMPDEST POP SWAP1 POP PUSH3 0x192 SWAP2 SWAP1 PUSH3 0x196 JUMP JUMPDEST POP SWAP1 JUMP JUMPDEST JUMPDEST DUP1 DUP3 GT ISZERO PUSH3 0x1B1 JUMPI PUSH1 0x0 DUP2 PUSH1 0x0 SWAP1 SSTORE POP PUSH1 0x1 ADD PUSH3 0x197 JUMP JUMPDEST POP SWAP1 JUMP JUMPDEST PUSH1 0x0 PUSH1 0x2 DUP3 DIV SWAP1 POP PUSH1 0x1 DUP3 AND DUP1 PUSH3 0x1CE JUMPI PUSH1 0x7F DUP3 AND SWAP2 POP JUMPDEST PUSH1 0x20 DUP3 LT DUP2 EQ ISZERO PUSH3 0x1E5 JUMPI PUSH3 0x1E4 PUSH3 0x1EB JUMP JUMPDEST JUMPDEST POP SWAP2 SWAP1 POP JUMP JUMPDEST PUSH32 0x4E487B7100000000000000000000000000000000000000000000000000000000 PUSH1 0x0 MSTORE PUSH1 0x22 PUSH1 0x4 MSTORE PUSH1 0x24 PUSH1 0x0 REVERT JUMPDEST PUSH2 0xDB3 DUP1 PUSH3 0x22A PUSH1 0x0 CODECOPY PUSH1 0x0 RETURN INVALID PUSH1 0x80 PUSH1 0x40 MSTORE CALLVALUE DUP1 ISZERO PUSH2 0x10 JUMPI PUSH1 0x0 DUP1 REVERT JUMPDEST POP PUSH1 0x4 CALLDATASIZE LT PUSH2 0x9E JUMPI PUSH1 0x0 CALLDATALOAD PUSH1 0xE0 SHR DUP1 PUSH4 0x70A08231 GT PUSH2 0x66 JUMPI DUP1 PUSH4 0x70A08231 EQ PUSH2 0x16F JUMPI DUP1 PUSH4 0x947A3168 EQ PUSH2 0x19F JUMPI DUP1 PUSH4 0x95D89B41 EQ PUSH2 0x1BD JUMPI DUP1 PUSH4 0xA9059CBB EQ PUSH2 0x1DB JUMPI DUP1 PUSH4 0xDD62ED3E EQ PUSH2 0x20B JUMPI PUSH2 0x9E JUMP JUMPDEST DUP1 PUSH4 0x95EA7B3 EQ PUSH2 0xA3 JUMPI DUP1 PUSH4 0x23B872DD EQ PUSH2 0xD3 JUMPI DUP1 PUSH4 0x27E235E3 EQ PUSH2 0x103 JUMPI DUP1 PUSH4 0x313CE567 EQ PUSH2 0x133 JUMPI DUP1 PUSH4 0x3940E9EE EQ PUSH2 0x151 JUMPI JUMPDEST PUSH1 0x0 DUP1 REVERT JUMPDEST PUSH2 0xBD PUSH1 0x4 DUP1 CALLDATASIZE SUB DUP2 ADD SWAP1 PUSH2 0xB8 SWAP2 SWAP1 PUSH2 0x955 JUMP JUMPDEST PUSH2 0x23B JUMP JUMPDEST PUSH1 0x40 MLOAD PUSH2 0xCA SWAP2 SWAP1 PUSH2 0xA55 JUMP JUMPDEST PUSH1 0x40 MLOAD DUP1 SWAP2 SUB SWAP1 RETURN JUMPDEST PUSH2 0xED PUSH1 0x4 DUP1 CALLDATASIZE SUB DUP2 ADD SWAP1 PUSH2 0xE8 SWAP2 SWAP1 PUSH2 0x902 JUMP JUMPDEST PUSH2 0x32D JUMP JUMPDEST PUSH1 0x40 MLOAD PUSH2 0xFA SWAP2 SWAP1 PUSH2 0xA55 JUMP JUMPDEST PUSH1 0x40 MLOAD DUP1 SWAP2 SUB SWAP1 RETURN JUMPDEST PUSH2 0x11D PUSH1 0x4 DUP1 CALLDATASIZE SUB DUP2 ADD SWAP1 PUSH2 0x118 SWAP2 SWAP1 PUSH2 0x895 JUMP JUMPDEST PUSH2 0x555 JUMP JUMPDEST PUSH1 0x40 MLOAD PUSH2 0x12A SWAP2 SWAP1 PUSH2 0xAF2 JUMP JUMPDEST PUSH1 0x40 MLOAD DUP1 SWAP2 SUB SWAP1 RETURN JUMPDEST PUSH2 0x13B PUSH2 0x56D JUMP JUMPDEST PUSH1 0x40 MLOAD PUSH2 0x148 SWAP2 SWAP1 PUSH2 0xAF2 JUMP JUMPDEST PUSH1 0x40 MLOAD DUP1 SWAP2 SUB SWAP1 RETURN JUMPDEST PUSH2 0x159 PUSH2 0x573 JUMP JUMPDEST PUSH1 0x40 MLOAD PUSH2 0x166 SWAP2 SWAP1 PUSH2 0xAF2 JUMP JUMPDEST PUSH1 0x40 MLOAD DUP1 SWAP2 SUB SWAP1 RETURN JUMPDEST PUSH2 0x189 PUSH1 0x4 DUP1 CALLDATASIZE SUB DUP2 ADD SWAP1 PUSH2 0x184 SWAP2 SWAP1 PUSH2 0x895 JUMP JUMPDEST PUSH2 0x579 JUMP JUMPDEST PUSH1 0x40 MLOAD PUSH2 0x196 SWAP2 SWAP1 PUSH2 0xAF2 JUMP JUMPDEST PUSH1 0x40 MLOAD DUP1 SWAP2 SUB SWAP1 RETURN JUMPDEST PUSH2 0x1A7 PUSH2 0x5C2 JUMP JUMPDEST PUSH1 0x40 MLOAD PUSH2 0x1B4 SWAP2 SWAP1 PUSH2 0xA70 JUMP JUMPDEST PUSH1 0x40 MLOAD DUP1 SWAP2 SUB SWAP1 RETURN JUMPDEST PUSH2 0x1C5 PUSH2 0x650 JUMP JUMPDEST PUSH1 0x40 MLOAD PUSH2 0x1D2 SWAP2 SWAP1 PUSH2 0xA70 JUMP JUMPDEST PUSH1 0x40 MLOAD DUP1 SWAP2 SUB SWAP1 RETURN JUMPDEST PUSH2 0x1F5 PUSH1 0x4 DUP1 CALLDATASIZE SUB DUP2 ADD SWAP1 PUSH2 0x1F0 SWAP2 SWAP1 PUSH2 0x955 JUMP JUMPDEST PUSH2 0x6DE JUMP JUMPDEST PUSH1 0x40 MLOAD PUSH2 0x202 SWAP2 SWAP1 PUSH2 0xA55 JUMP JUMPDEST PUSH1 0x40 MLOAD DUP1 SWAP2 SUB SWAP1 RETURN JUMPDEST PUSH2 0x225 PUSH1 0x4 DUP1 CALLDATASIZE SUB DUP2 ADD SWAP1 PUSH2 0x220 SWAP2 SWAP1 PUSH2 0x8C2 JUMP JUMPDEST PUSH2 0x846 JUMP JUMPDEST PUSH1 0x40 MLOAD PUSH2 0x232 SWAP2 SWAP1 PUSH2 0xAF2 JUMP JUMPDEST PUSH1 0x40 MLOAD DUP1 SWAP2 SUB SWAP1 RETURN JUMPDEST PUSH1 0x0 DUP2 PUSH1 0x5 PUSH1 0x0 CALLER PUSH20 0xFFFFFFFFFFFFFFFFFFFFFFFFFFFFFFFFFFFFFFFF AND PUSH20 0xFFFFFFFFFFFFFFFFFFFFFFFFFFFFFFFFFFFFFFFF AND DUP2 MSTORE PUSH1 0x20 ADD SWAP1 DUP2 MSTORE PUSH1 0x20 ADD PUSH1 0x0 KECCAK256 PUSH1 0x0 DUP6 PUSH20 0xFFFFFFFFFFFFFFFFFFFFFFFFFFFFFFFFFFFFFFFF AND PUSH20 0xFFFFFFFFFFFFFFFFFFFFFFFFFFFFFFFFFFFFFFFF AND DUP2 MSTORE PUSH1 0x20 ADD SWAP1 DUP2 MSTORE PUSH1 0x20 ADD PUSH1 0x0 KECCAK256 DUP2 SWAP1 SSTORE POP DUP3 PUSH20 0xFFFFFFFFFFFFFFFFFFFFFFFFFFFFFFFFFFFFFFFF AND CALLER PUSH20 0xFFFFFFFFFFFFFFFFFFFFFFFFFFFFFFFFFFFFFFFF AND PUSH32 0x8C5BE1E5EBEC7D5BD14F71427D1E84F3DD0314C0F7B2291E5B200AC8C7C3B925 DUP5 PUSH1 0x40 MLOAD PUSH2 0x31B SWAP2 SWAP1 PUSH2 0xAF2 JUMP JUMPDEST PUSH1 0x40 MLOAD DUP1 SWAP2 SUB SWAP1 LOG3 PUSH1 0x1 SWAP1 POP SWAP3 SWAP2 POP POP JUMP JUMPDEST PUSH1 0x0 DUP2 PUSH1 0x5 PUSH1 0x0 DUP7 PUSH20 0xFFFFFFFFFFFFFFFFFFFFFFFFFFFFFFFFFFFFFFFF AND PUSH20 0xFFFFFFFFFFFFFFFFFFFFFFFFFFFFFFFFFFFFFFFF AND DUP2 MSTORE PUSH1 0x20 ADD SWAP1 DUP2 MSTORE PUSH1 0x20 ADD PUSH1 0x0 KECCAK256 PUSH1 0x0 CALLER PUSH20 0xFFFFFFFFFFFFFFFFFFFFFFFFFFFFFFFFFFFFFFFF AND PUSH20 0xFFFFFFFFFFFFFFFFFFFFFFFFFFFFFFFFFFFFFFFF AND DUP2 MSTORE PUSH1 0x20 ADD SWAP1 DUP2 MSTORE PUSH1 0x20 ADD PUSH1 0x0 KECCAK256 SLOAD LT ISZERO PUSH2 0x3EE JUMPI PUSH1 0x40 MLOAD PUSH32 0x8C379A000000000000000000000000000000000000000000000000000000000 DUP2 MSTORE PUSH1 0x4 ADD PUSH2 0x3E5 SWAP1 PUSH2 0xAD2 JUMP JUMPDEST PUSH1 0x40 MLOAD DUP1 SWAP2 SUB SWAP1 REVERT JUMPDEST DUP2 PUSH2 0x3F8 DUP6 PUSH2 0x579 JUMP JUMPDEST LT ISZERO PUSH2 0x439 JUMPI PUSH1 0x40 MLOAD PUSH32 0x8C379A000000000000000000000000000000000000000000000000000000000 DUP2 MSTORE PUSH1 0x4 ADD PUSH2 0x430 SWAP1 PUSH2 0xAB2 JUMP JUMPDEST PUSH1 0x40 MLOAD DUP1 SWAP2 SUB SWAP1 REVERT JUMPDEST DUP2 PUSH1 0x4 PUSH1 0x0 DUP6 PUSH20 0xFFFFFFFFFFFFFFFFFFFFFFFFFFFFFFFFFFFFFFFF AND PUSH20 0xFFFFFFFFFFFFFFFFFFFFFFFFFFFFFFFFFFFFFFFF AND DUP2 MSTORE PUSH1 0x20 ADD SWAP1 DUP2 MSTORE PUSH1 0x20 ADD PUSH1 0x0 KECCAK256 PUSH1 0x0 DUP3 DUP3 SLOAD PUSH2 0x488 SWAP2 SWAP1 PUSH2 0xB29 JUMP JUMPDEST SWAP3 POP POP DUP2 SWAP1 SSTORE POP DUP2 PUSH1 0x4 PUSH1 0x0 DUP7 PUSH20 0xFFFFFFFFFFFFFFFFFFFFFFFFFFFFFFFFFFFFFFFF AND PUSH20 0xFFFFFFFFFFFFFFFFFFFFFFFFFFFFFFFFFFFFFFFF AND DUP2 MSTORE PUSH1 0x20 ADD SWAP1 DUP2 MSTORE PUSH1 0x20 ADD PUSH1 0x0 KECCAK256 PUSH1 0x0 DUP3 DUP3 SLOAD PUSH2 0x4DE SWAP2 SWAP1 PUSH2 0xB7F JUMP JUMPDEST SWAP3 POP POP DUP2 SWAP1 SSTORE POP DUP3 PUSH20 0xFFFFFFFFFFFFFFFFFFFFFFFFFFFFFFFFFFFFFFFF AND DUP5 PUSH20 0xFFFFFFFFFFFFFFFFFFFFFFFFFFFFFFFFFFFFFFFF AND PUSH32 0xDDF252AD1BE2C89B69C2B068FC378DAA952BA7F163C4A11628F55A4DF523B3EF DUP5 PUSH1 0x40 MLOAD PUSH2 0x542 SWAP2 SWAP1 PUSH2 0xAF2 JUMP JUMPDEST PUSH1 0x40 MLOAD DUP1 SWAP2 SUB SWAP1 LOG3 PUSH1 0x1 SWAP1 POP SWAP4 SWAP3 POP POP POP JUMP JUMPDEST PUSH1 0x4 PUSH1 0x20 MSTORE DUP1 PUSH1 0x0 MSTORE PUSH1 0x40 PUSH1 0x0 KECCAK256 PUSH1 0x0 SWAP2 POP SWAP1 POP SLOAD DUP2 JUMP JUMPDEST PUSH1 0x3 SLOAD DUP2 JUMP JUMPDEST PUSH1 0x0 SLOAD DUP2 JUMP JUMPDEST PUSH1 0x0 PUSH1 0x4 PUSH1 0x0 DUP4 PUSH20 0xFFFFFFFFFFFFFFFFFFFFFFFFFFFFFFFFFFFFFFFF AND PUSH20 0xFFFFFFFFFFFFFFFFFFFFFFFFFFFFFFFFFFFFFFFF AND DUP2 MSTORE PUSH1 0x20 ADD SWAP1 DUP2 MSTORE PUSH1 0x20 ADD PUSH1 0x0 KECCAK256 SLOAD SWAP1 POP SWAP2 SWAP1 POP JUMP JUMPDEST PUSH1 0x1 DUP1 SLOAD PUSH2 0x5CF SWAP1 PUSH2 0xC2E JUMP JUMPDEST DUP1 PUSH1 0x1F ADD PUSH1 0x20 DUP1 SWAP2 DIV MUL PUSH1 0x20 ADD PUSH1 0x40 MLOAD SWAP1 DUP2 ADD PUSH1 0x40 MSTORE DUP1 SWAP3 SWAP2 SWAP1 DUP2 DUP2 MSTORE PUSH1 0x20 ADD DUP3 DUP1 SLOAD PUSH2 0x5FB SWAP1 PUSH2 0xC2E JUMP JUMPDEST DUP1 ISZERO PUSH2 0x648 JUMPI DUP1 PUSH1 0x1F LT PUSH2 0x61D JUMPI PUSH2 0x100 DUP1 DUP4 SLOAD DIV MUL DUP4 MSTORE SWAP2 PUSH1 0x20 ADD SWAP2 PUSH2 0x648 JUMP JUMPDEST DUP3 ADD SWAP2 SWAP1 PUSH1 0x0 MSTORE PUSH1 0x20 PUSH1 0x0 KECCAK256 SWAP1 JUMPDEST DUP2 SLOAD DUP2 MSTORE SWAP1 PUSH1 0x1 ADD SWAP1 PUSH1 0x20 ADD DUP1 DUP4 GT PUSH2 0x62B JUMPI DUP3 SWAP1 SUB PUSH1 0x1F AND DUP3 ADD SWAP2 JUMPDEST POP POP POP POP POP DUP2 JUMP JUMPDEST PUSH1 0x2 DUP1 SLOAD PUSH2 0x65D SWAP1 PUSH2 0xC2E JUMP JUMPDEST DUP1 PUSH1 0x1F ADD PUSH1 0x20 DUP1 SWAP2 DIV MUL PUSH1 0x20 ADD PUSH1 0x40 MLOAD SWAP1 DUP2 ADD PUSH1 0x40 MSTORE DUP1 SWAP3 SWAP2 SWAP1 DUP2 DUP2 MSTORE PUSH1 0x20 ADD DUP3 DUP1 SLOAD PUSH2 0x689 SWAP1 PUSH2 0xC2E JUMP JUMPDEST DUP1 ISZERO PUSH2 0x6D6 JUMPI DUP1 PUSH1 0x1F LT PUSH2 0x6AB JUMPI PUSH2 0x100 DUP1 DUP4 SLOAD DIV MUL DUP4 MSTORE SWAP2 PUSH1 0x20 ADD SWAP2 PUSH2 0x6D6 JUMP JUMPDEST DUP3 ADD SWAP2 SWAP1 PUSH1 0x0 MSTORE PUSH1 0x20 PUSH1 0x0 KECCAK256 SWAP1 JUMPDEST DUP2 SLOAD DUP2 MSTORE SWAP1 PUSH1 0x1 ADD SWAP1 PUSH1 0x20 ADD DUP1 DUP4 GT PUSH2 0x6B9 JUMPI DUP3 SWAP1 SUB PUSH1 0x1F AND DUP3 ADD SWAP2 JUMPDEST POP POP POP POP POP DUP2 JUMP JUMPDEST PUSH1 0x0 DUP2 PUSH2 0x6EA CALLER PUSH2 0x579 JUMP JUMPDEST LT ISZERO PUSH2 0x72B JUMPI PUSH1 0x40 MLOAD PUSH32 0x8C379A000000000000000000000000000000000000000000000000000000000 DUP2 MSTORE PUSH1 0x4 ADD PUSH2 0x722 SWAP1 PUSH2 0xA92 JUMP JUMPDEST PUSH1 0x40 MLOAD DUP1 SWAP2 SUB SWAP1 REVERT JUMPDEST DUP2 PUSH1 0x4 PUSH1 0x0 DUP6 PUSH20 0xFFFFFFFFFFFFFFFFFFFFFFFFFFFFFFFFFFFFFFFF AND PUSH20 0xFFFFFFFFFFFFFFFFFFFFFFFFFFFFFFFFFFFFFFFF AND DUP2 MSTORE PUSH1 0x20 ADD SWAP1 DUP2 MSTORE PUSH1 0x20 ADD PUSH1 0x0 KECCAK256 PUSH1 0x0 DUP3 DUP3 SLOAD PUSH2 0x77A SWAP2 SWAP1 PUSH2 0xB29 JUMP JUMPDEST SWAP3 POP POP DUP2 SWAP1 SSTORE POP DUP2 PUSH1 0x4 PUSH1 0x0 CALLER PUSH20 0xFFFFFFFFFFFFFFFFFFFFFFFFFFFFFFFFFFFFFFFF AND PUSH20 0xFFFFFFFFFFFFFFFFFFFFFFFFFFFFFFFFFFFFFFFF AND DUP2 MSTORE PUSH1 0x20 ADD SWAP1 DUP2 MSTORE PUSH1 0x20 ADD PUSH1 0x0 KECCAK256 PUSH1 0x0 DUP3 DUP3 SLOAD PUSH2 0x7D0 SWAP2 SWAP1 PUSH2 0xB7F JUMP JUMPDEST SWAP3 POP POP DUP2 SWAP1 SSTORE POP DUP3 PUSH20 0xFFFFFFFFFFFFFFFFFFFFFFFFFFFFFFFFFFFFFFFF AND CALLER PUSH20 0xFFFFFFFFFFFFFFFFFFFFFFFFFFFFFFFFFFFFFFFF AND PUSH32 0xDDF252AD1BE2C89B69C2B068FC378DAA952BA7F163C4A11628F55A4DF523B3EF DUP5 PUSH1 0x40 MLOAD PUSH2 0x834 SWAP2 SWAP1 PUSH2 0xAF2 JUMP JUMPDEST PUSH1 0x40 MLOAD DUP1 SWAP2 SUB SWAP1 LOG3 PUSH1 0x1 SWAP1 POP SWAP3 SWAP2 POP POP JUMP JUMPDEST PUSH1 0x5 PUSH1 0x20 MSTORE DUP2 PUSH1 0x0 MSTORE PUSH1 0x40 PUSH1 0x0 KECCAK256 PUSH1 0x20 MSTORE DUP1 PUSH1 0x0 MSTORE PUSH1 0x40 PUSH1 0x0 KECCAK256 PUSH1 0x0 SWAP2 POP SWAP2 POP POP SLOAD DUP2 JUMP JUMPDEST PUSH1 0x0 DUP2 CALLDATALOAD SWAP1 POP PUSH2 0x87A DUP2 PUSH2 0xD4F JUMP JUMPDEST SWAP3 SWAP2 POP POP JUMP JUMPDEST PUSH1 0x0 DUP2 CALLDATALOAD SWAP1 POP PUSH2 0x88F DUP2 PUSH2 0xD66 JUMP JUMPDEST SWAP3 SWAP2 POP POP JUMP JUMPDEST PUSH1 0x0 PUSH1 0x20 DUP3 DUP5 SUB SLT ISZERO PUSH2 0x8AB JUMPI PUSH2 0x8AA PUSH2 0xCBE JUMP JUMPDEST JUMPDEST PUSH1 0x0 PUSH2 0x8B9 DUP5 DUP3 DUP6 ADD PUSH2 0x86B JUMP JUMPDEST SWAP2 POP POP SWAP3 SWAP2 POP POP JUMP JUMPDEST PUSH1 0x0 DUP1 PUSH1 0x40 DUP4 DUP6 SUB SLT ISZERO PUSH2 0x8D9 JUMPI PUSH2 0x8D8 PUSH2 0xCBE JUMP JUMPDEST JUMPDEST PUSH1 0x0 PUSH2 0x8E7 DUP6 DUP3 DUP7 ADD PUSH2 0x86B JUMP JUMPDEST SWAP3 POP POP PUSH1 0x20 PUSH2 0x8F8 DUP6 DUP3 DUP7 ADD PUSH2 0x86B JUMP JUMPDEST SWAP2 POP POP SWAP3 POP SWAP3 SWAP1 POP JUMP JUMPDEST PUSH1 0x0 DUP1 PUSH1 0x0 PUSH1 0x60 DUP5 DUP7 SUB SLT ISZERO PUSH2 0x91B JUMPI PUSH2 0x91A PUSH2 0xCBE JUMP JUMPDEST JUMPDEST PUSH1 0x0 PUSH2 0x929 DUP7 DUP3 DUP8 ADD PUSH2 0x86B JUMP JUMPDEST SWAP4 POP POP PUSH1 0x20 PUSH2 0x93A DUP7 DUP3 DUP8 ADD PUSH2 0x86B JUMP JUMPDEST SWAP3 POP POP PUSH1 0x40 PUSH2 0x94B DUP7 DUP3 DUP8 ADD PUSH2 0x880 JUMP JUMPDEST SWAP2 POP POP SWAP3 POP SWAP3 POP SWAP3 JUMP JUMPDEST PUSH1 0x0 DUP1 PUSH1 0x40 DUP4 DUP6 SUB SLT ISZERO PUSH2 0x96C JUMPI PUSH2 0x96B PUSH2 0xCBE JUMP JUMPDEST JUMPDEST PUSH1 0x0 PUSH2 0x97A DUP6 DUP3 DUP7 ADD PUSH2 0x86B JUMP JUMPDEST SWAP3 POP POP PUSH1 0x20 PUSH2 0x98B DUP6 DUP3 DUP7 ADD PUSH2 0x880 JUMP JUMPDEST SWAP2 POP POP SWAP3 POP SWAP3 SWAP1 POP JUMP JUMPDEST PUSH2 0x99E DUP2 PUSH2 0xBC5 JUMP JUMPDEST DUP3 MSTORE POP POP JUMP JUMPDEST PUSH1 0x0 PUSH2 0x9AF DUP3 PUSH2 0xB0D JUMP JUMPDEST PUSH2 0x9B9 DUP2 DUP6 PUSH2 0xB18 JUMP JUMPDEST SWAP4 POP PUSH2 0x9C9 DUP2 DUP6 PUSH1 0x20 DUP7 ADD PUSH2 0xBFB JUMP JUMPDEST PUSH2 0x9D2 DUP2 PUSH2 0xCC3 JUMP JUMPDEST DUP5 ADD SWAP2 POP POP SWAP3 SWAP2 POP POP JUMP JUMPDEST PUSH1 0x0 PUSH2 0x9EA PUSH1 0x12 DUP4 PUSH2 0xB18 JUMP JUMPDEST SWAP2 POP PUSH2 0x9F5 DUP3 PUSH2 0xCD4 JUMP JUMPDEST PUSH1 0x20 DUP3 ADD SWAP1 POP SWAP2 SWAP1 POP JUMP JUMPDEST PUSH1 0x0 PUSH2 0xA0D PUSH1 0x12 DUP4 PUSH2 0xB18 JUMP JUMPDEST SWAP2 POP PUSH2 0xA18 DUP3 PUSH2 0xCFD JUMP JUMPDEST PUSH1 0x20 DUP3 ADD SWAP1 POP SWAP2 SWAP1 POP JUMP JUMPDEST PUSH1 0x0 PUSH2 0xA30 PUSH1 0x11 DUP4 PUSH2 0xB18 JUMP JUMPDEST SWAP2 POP PUSH2 0xA3B DUP3 PUSH2 0xD26 JUMP JUMPDEST PUSH1 0x20 DUP3 ADD SWAP1 POP SWAP2 SWAP1 POP JUMP JUMPDEST PUSH2 0xA4F DUP2 PUSH2 0xBF1 JUMP JUMPDEST DUP3 MSTORE POP POP JUMP JUMPDEST PUSH1 0x0 PUSH1 0x20 DUP3 ADD SWAP1 POP PUSH2 0xA6A PUSH1 0x0 DUP4 ADD DUP5 PUSH2 0x995 JUMP JUMPDEST SWAP3 SWAP2 POP POP JUMP JUMPDEST PUSH1 0x0 PUSH1 0x20 DUP3 ADD SWAP1 POP DUP2 DUP2 SUB PUSH1 0x0 DUP4 ADD MSTORE PUSH2 0xA8A DUP2 DUP5 PUSH2 0x9A4 JUMP JUMPDEST SWAP1 POP SWAP3 SWAP2 POP POP JUMP JUMPDEST PUSH1 0x0 PUSH1 0x20 DUP3 ADD SWAP1 POP DUP2 DUP2 SUB PUSH1 0x0 DUP4 ADD MSTORE PUSH2 0xAAB DUP2 PUSH2 0x9DD JUMP JUMPDEST SWAP1 POP SWAP2 SWAP1 POP JUMP JUMPDEST PUSH1 0x0 PUSH1 0x20 DUP3 ADD SWAP1 POP DUP2 DUP2 SUB PUSH1 0x0 DUP4 ADD MSTORE PUSH2 0xACB DUP2 PUSH2 0xA00 JUMP JUMPDEST SWAP1 POP SWAP2 SWAP1 POP JUMP JUMPDEST PUSH1 0x0 PUSH1 0x20 DUP3 ADD SWAP1 POP DUP2 DUP2 SUB PUSH1 0x0 DUP4 ADD MSTORE PUSH2 0xAEB DUP2 PUSH2 0xA23 JUMP JUMPDEST SWAP1 POP SWAP2 SWAP1 POP JUMP JUMPDEST PUSH1 0x0 PUSH1 0x20 DUP3 ADD SWAP1 POP PUSH2 0xB07 PUSH1 0x0 DUP4 ADD DUP5 PUSH2 0xA46 JUMP JUMPDEST SWAP3 SWAP2 POP POP JUMP JUMPDEST PUSH1 0x0 DUP2 MLOAD SWAP1 POP SWAP2 SWAP1 POP JUMP JUMPDEST PUSH1 0x0 DUP3 DUP3 MSTORE PUSH1 0x20 DUP3 ADD SWAP1 POP SWAP3 SWAP2 POP POP JUMP JUMPDEST PUSH1 0x0 PUSH2 0xB34 DUP3 PUSH2 0xBF1 JUMP JUMPDEST SWAP2 POP PUSH2 0xB3F DUP4 PUSH2 0xBF1 JUMP JUMPDEST SWAP3 POP DUP3 PUSH32 0xFFFFFFFFFFFFFFFFFFFFFFFFFFFFFFFFFFFFFFFFFFFFFFFFFFFFFFFFFFFFFFFF SUB DUP3 GT ISZERO PUSH2 0xB74 JUMPI PUSH2 0xB73 PUSH2 0xC60 JUMP JUMPDEST JUMPDEST DUP3 DUP3 ADD SWAP1 POP SWAP3 SWAP2 POP POP JUMP JUMPDEST PUSH1 0x0 PUSH2 0xB8A DUP3 PUSH2 0xBF1 JUMP JUMPDEST SWAP2 POP PUSH2 0xB95 DUP4 PUSH2 0xBF1 JUMP JUMPDEST SWAP3 POP DUP3 DUP3 LT ISZERO PUSH2 0xBA8 JUMPI PUSH2 0xBA7 PUSH2 0xC60 JUMP JUMPDEST JUMPDEST DUP3 DUP3 SUB SWAP1 POP SWAP3 SWAP2 POP POP JUMP JUMPDEST PUSH1 0x0 PUSH2 0xBBE DUP3 PUSH2 0xBD1 JUMP JUMPDEST SWAP1 POP SWAP2 SWAP1 POP JUMP JUMPDEST PUSH1 0x0 DUP2 ISZERO ISZERO SWAP1 POP SWAP2 SWAP1 POP JUMP JUMPDEST PUSH1 0x0 PUSH20 0xFFFFFFFFFFFFFFFFFFFFFFFFFFFFFFFFFFFFFFFF DUP3 AND SWAP1 POP SWAP2 SWAP1 POP JUMP JUMPDEST PUSH1 0x0 DUP2 SWAP1 POP SWAP2 SWAP1 POP JUMP JUMPDEST PUSH1 0x0 JUMPDEST DUP4 DUP2 LT ISZERO PUSH2 0xC19 JUMPI DUP1 DUP3 ADD MLOAD DUP2 DUP5 ADD MSTORE PUSH1 0x20 DUP2 ADD SWAP1 POP PUSH2 0xBFE JUMP JUMPDEST DUP4 DUP2 GT ISZERO PUSH2 0xC28 JUMPI PUSH1 0x0 DUP5 DUP5 ADD MSTORE JUMPDEST POP POP POP POP JUMP JUMPDEST PUSH1 0x0 PUSH1 0x2 DUP3 DIV SWAP1 POP PUSH1 0x1 DUP3 AND DUP1 PUSH2 0xC46 JUMPI PUSH1 0x7F DUP3 AND SWAP2 POP JUMPDEST PUSH1 0x20 DUP3 LT DUP2 EQ ISZERO PUSH2 0xC5A JUMPI PUSH2 0xC59 PUSH2 0xC8F JUMP JUMPDEST JUMPDEST POP SWAP2 SWAP1 POP JUMP JUMPDEST PUSH32 0x4E487B7100000000000000000000000000000000000000000000000000000000 PUSH1 0x0 MSTORE PUSH1 0x11 PUSH1 0x4 MSTORE PUSH1 0x24 PUSH1 0x0 REVERT JUMPDEST PUSH32 0x4E487B7100000000000000000000000000000000000000000000000000000000 PUSH1 0x0 MSTORE PUSH1 0x22 PUSH1 0x4 MSTORE PUSH1 0x24 PUSH1 0x0 REVERT JUMPDEST PUSH1 0x0 DUP1 REVERT JUMPDEST PUSH1 0x0 PUSH1 0x1F NOT PUSH1 0x1F DUP4 ADD AND SWAP1 POP SWAP2 SWAP1 POP JUMP JUMPDEST PUSH32 0x62616C616E6365206E6F7420656E6F7567680000000000000000000000000000 PUSH1 0x0 DUP3 ADD MSTORE POP JUMP JUMPDEST PUSH32 0x62616C616E636520697320746F6F206C6F770000000000000000000000000000 PUSH1 0x0 DUP3 ADD MSTORE POP JUMP JUMPDEST PUSH32 0x616C6C6F77616E636520746F6F206C6F77000000000000000000000000000000 PUSH1 0x0 DUP3 ADD MSTORE POP JUMP JUMPDEST PUSH2 0xD58 DUP2 PUSH2 0xBB3 JUMP JUMPDEST DUP2 EQ PUSH2 0xD63 JUMPI PUSH1 0x0 DUP1 REVERT JUMPDEST POP JUMP JUMPDEST PUSH2 0xD6F DUP2 PUSH2 0xBF1 JUMP JUMPDEST DUP2 EQ PUSH2 0xD7A JUMPI PUSH1 0x0 DUP1 REVERT JUMPDEST POP JUMP INVALID LOG2 PUSH5 0x6970667358 0x22 SLT KECCAK256 0xB8 DUP15 PUSH32 0x4EF157BEFA312C016E02C5412B01398726721E6370046B02E757678E6864736F PUSH13 0x63430008070033000000000000 "
				},
				"gasEstimates": {
					"creation": {
						"codeDepositCost": "701400",
						"executionCost": "infinite",
						"totalCost": "infinite"
					},
					"external": {
						"allowance(address,address)": "infinite",
						"approve(address,uint256)": "infinite",
						"balanceOf(address)": "2841",
						"balances(address)": "2859",
						"decimals()": "2496",
						"symbol()": "infinite",
						"token_name()": "infinite",
						"total_supply()": "2518",
						"transfer(address,uint256)": "infinite",
						"transferFrom(address,address,uint256)": "infinite"
					}
				},
				"methodIdentifiers": {
					"allowance(address,address)": "dd62ed3e",
					"approve(address,uint256)": "095ea7b3",
					"balanceOf(address)": "70a08231",
					"balances(address)": "27e235e3",
					"decimals()": "313ce567",
					"symbol()": "95d89b41",
					"token_name()": "947a3168",
					"total_supply()": "3940e9ee",
					"transfer(address,uint256)": "a9059cbb",
					"transferFrom(address,address,uint256)": "23b872dd"
				}
			},
			"storageLayout": {
				"storage": [
					{
						"astId": 4,
						"contract": "contracts/Token.sol:Token",
						"label": "total_supply",
						"offset": 0,
						"slot": "0",
						"type": "t_uint256"
					},
					{
						"astId": 7,
						"contract": "contracts/Token.sol:Token",
						"label": "token_name",
						"offset": 0,
						"slot": "1",
						"type": "t_string_storage"
					},
					{
						"astId": 10,
						"contract": "contracts/Token.sol:Token",
						"label": "symbol",
						"offset": 0,
						"slot": "2",
						"type": "t_string_storage"
					},
					{
						"astId": 13,
						"contract": "contracts/Token.sol:Token",
						"label": "decimals",
						"offset": 0,
						"slot": "3",
						"type": "t_uint256"
					},
					{
						"astId": 17,
						"contract": "contracts/Token.sol:Token",
						"label": "balances",
						"offset": 0,
						"slot": "4",
						"type": "t_mapping(t_address,t_uint256)"
					},
					{
						"astId": 23,
						"contract": "contracts/Token.sol:Token",
						"label": "allowance",
						"offset": 0,
						"slot": "5",
						"type": "t_mapping(t_address,t_mapping(t_address,t_uint256))"
					}
				],
				"types": {
					"t_address": {
						"encoding": "inplace",
						"label": "address",
						"numberOfBytes": "20"
					},
					"t_mapping(t_address,t_mapping(t_address,t_uint256))": {
						"encoding": "mapping",
						"key": "t_address",
						"label": "mapping(address => mapping(address => uint256))",
						"numberOfBytes": "32",
						"value": "t_mapping(t_address,t_uint256)"
					},
					"t_mapping(t_address,t_uint256)": {
						"encoding": "mapping",
						"key": "t_address",
						"label": "mapping(address => uint256)",
						"numberOfBytes": "32",
						"value": "t_uint256"
					},
					"t_string_storage": {
						"encoding": "bytes",
						"label": "string",
						"numberOfBytes": "32"
					},
					"t_uint256": {
						"encoding": "inplace",
						"label": "uint256",
						"numberOfBytes": "32"
					}
				}
			},
			"userdoc": {
				"kind": "user",
				"methods": {},
				"version": 1
			}
		}
	}
}